:100000000C942C020C9449020C9449020C94490261
:100010000C9449020C9449020C9449020C94490234
:100020000C9449020C9449020C9488150C94C21546
:100030000C9449020C9449020C9449020C94490214
:100040000C9449020C9449020C9449020C94490204
:100050000C94DA030C9449020C9449020C94490262
:100060000C9449020C9449020C9449020C944902E4
:100070000C9449020C9449020C9449020C944902D4
:100080000C9449020C9449020C9449020C944902C4
:100090000C9449020C9449020C9449020C944902B4
:1000A0000C9449020C9449020C944902000100008E
:1000B0005901120002000016014300030000120162
:1000C0000401030904FC001402030904E4001603FC
:1000D000030904D6000C0C03310032003300340055
:1000E0003500000016035500530042002000530065
:1000F00065007200690061006C0000001403590083
:100100006F007500720020004E0061006D006500F8
:1001100000000403090409024300020100C032097F
:100120000400000102020100052400100105240161
:1001300001010424020605240600010705820310BC
:10014000004009040100020A000000070503024004
:1001500000000705840240000012010002020000B6
:1001600010C0167A040001010203010001C112014E
:100170008036018136000000000000005F000000B2
:1001800007000700147F147F14242A7F2A122313E8
:1001900008646236495522500005030000001C2205
:1001A00041000041221C0014083E081408083E08C3
:1001B00008005030000008080808080060600000CF
:1001C00020100804023E5149453E00427F40004253
:1001D000615149462141454B311814127F10274582
:1001E0004545393C4A4949300171090503364949B9
:1001F0004936064949291E003636000000563600A9
:10020000000814224100141414141400412214088C
:100210000201510906324979413E7E1111117E7F5A
:10022000494949363E414141227F4141221C7F4993
:100230004949417F090909013E4149497A7F080836
:10024000087F00417F41002040413F017F08142288
:10025000417F404040407F020C027F7F0408107FB6
:100260003E4141413E7F090909063E4151215E7FE1
:1002700009192946464949493101017F01013F4099
:1002800040403F1F2040201F3F4038403F6314083C
:10029000146307087008076151494543007F4141D5
:1002A0000002040810200041417F00040201020402
:1002B0004040404040000102040020545454787FE4
:1002C000484444383844444420384444487F3854EF
:1002D000545418087E0901020C5252523E7F080401
:1002E000047800447D40002040443D007F102844B5
:1002F0000000417F40007C041804787C08040478E6
:1003000038444444387C14141408081414187C7CB1
:10031000080404084854545420043F4440203C40FE
:1003200040207C1C2040201C3C4030403C44281095
:1003300028440C5050503C4464544C44000836410E
:100340000000007F00000041360800100808100877
:1003500078464146786E616E00696E660000407AAC
:1003600010F35A00A0724E18090010A5D4E800003E
:10037000E87648170000E40B54020000CA9A3B00DC
:100380000000E1F505000080969800000040420F53
:10039000000000A08601000000102700000000E817
:1003A00003000000006400000000000A00000000DC
:1003B000000100000000002C76D888DC674F08237D
:1003C000DFC1DFAE59E1B1B796E5E3E453C63AE6E3
:1003D00051997696E8E6C28426EB898C9B62ED40C3
:1003E0007C6FFCEFBC9C9F40F2BAA56FA5F4900512
:1003F0005A2AF75C936B6CF9676DC11BFCE0E40D46
:1004000047FEF520E6B500D0ED902E030094357739
:10041000050080841E080000204E0A000000C80C61
:10042000333333330F986E12831141EF8D211489CA
:100430003BE65516CFFEE6DB18D1844B381BF77C24
:100440001D901DA4BBE424203284725E228100C969
:10045000F124ECA1E53D270011241FBECFEFDAE027
:10046000DEBFCDBF14E0A0E0B1E0EEEBF6E402C0E9
:1004700005900D92AA36B107D9F727E0AAE6B4E0B5
:1004800001C01D92AE35B207E1F70E94C2120C9472
:100490005D230C94000080E894E00E94A8198FEB83
:1004A00094E00E94A81981E595E00E94A81985E9C9
:1004B00094E00C94A8190F9301E020E043E560E07C
:1004C00080E00E944F172FE244E56FE280E00E9437
:1004D0004F172FE240E060E080E00E944F172FE2CC
:1004E00043E560E083E50E944F170F91089521E0F6
:1004F00047E153E06FE08EE00E94FD1821E044E206
:1005000053E069E183E10C94FD18AF92BF92CF9262
:10051000EF920F931F938DEFA82E82E0B82E99E0F3
:10052000C92E28E0E22E00E010E020E132E440E0B5
:1005300050E064E472E48AEA94E00E9484191F9116
:100540000F91EF90CF90BF90AF900895AF92BF9270
:10055000CF92EF920F931F933FEEA32E32E0B32E74
:1005600047E0C42E59E0E52E00E010E020E132E43F
:1005700040E050E06EE872E48DEF94E00E94841950
:100580001F910F91EF90CF90BF90AF900895AF92D1
:10059000BF92CF92EF920F931F936CEEA62E62E064
:1005A000B62E73E0C72EE8E0EE2E00E010E028EC57
:1005B00031E440E050E060EE70E487E295E00E94B4
:1005C00084191F910F91EF90CF90BF90AF90089535
:1005D000AF92BF92CF92EF920F931F93FCEFAF2E8B
:1005E000F1E0BF2EA8E1CA2EB0E5EB2E00E010E04E
:1005F000980140E050E060E070E484ED94E00E94F7
:1006000084191F910F91EF90CF90BF90AF900895F4
:10061000AF92BF92CF92EF920F931F9316EEA12E3F
:1006200011E0B12E0BE0C02E8AE0E82E00E010E0D1
:1006300020E531E440E050E064E172E48CE395E0D1
:100640000E9484191F910F91EF90CF90BF90AF90AF
:100650000895AF92BF92CF92EF920F931F9392EEB5
:10066000A92E91E0B92E24E0C22E37E0E32E00E05F
:1006700010E024E032E440E050E060EE70E482E11B
:1006800095E00E9484191F910F91EF90CF90BF9039
:10069000AF900895AF92BF92CF92EF920F931F93B6
:1006A00040E0A42E41E0B42E53E5C52E68E0E62ECE
:1006B00000E010E0980140E050E060E071EC8FEB6A
:1006C00094E00E94841972E4A72E71E0B72EE8E04E
:1006D000CE2EFFE8EF2E00E010E020E031ECB90173
:1006E000A80180E894E00E948419A0E0AA2EA1E06D
:1006F000BA2EB3E5CB2E18E0E12E00E010E0980111
:1007000040E050E06EEF72E485E994E00E948419C5
:1007100008E0C02E8FE8E82E00E010E026EA32E480
:1007200040E050E060E071EC81E595E00E948419C2
:100730001F910F91EF90CF90BF90AF900895CF92FF
:10074000DF92EF92FF92CF93DF9360916A047091F2
:100750006B04C0918400D0918500882777FD809537
:10076000982F0E94BE1E20E030E040E857E40E942F
:10077000721F6B017C01BE0180E090E00E94BC1EF4
:100780009B01AC01C701B6010E94BB1D20E034E211
:1007900044EF5AE40E94231E0E948B1E7093710442
:1007A00060937004CB01DF91CF91FF90EF90DF90C9
:1007B000CF9008951F920F920FB60F9211242F938E
:1007C0003F934F935F936F937F938F939F93AF93D9
:1007D000BF93EF93FF9380916A0490916B0401960D
:1007E00090936B0480936A040E949F03909371041A
:1007F00080937004CC9789F4809172049091730473
:100800000196909373048093720410927104109275
:10081000700410926B0410926A04FF91EF91BF91E3
:10082000AF919F918F917F916F915F914F913F9188
:100830002F910F900FBE0F901F901895809170040C
:1008400090917104089580917204909173040895B9
:100850004F925F926F927F92AF92BF92CF92EF9240
:100860000F931F93CF93DF930E941A21EC010E94F4
:100870001A2167E270E00E946720BC01882777FD9B
:100880008095982F0E94BE1E2B013C01CE016AE488
:1008900070E00E946720BC01882777FD8095982F23
:1008A0000E94BE1EAB01BC019DEFA92E92E0B92EA5
:1008B00029E0C22E38E0E32E930182018AEA94E017
:1008C0000E9484198AEA94E0DF91CF911F910F91E1
:1008D000EF90CF90BF90AF907F906F905F904F90D0
:1008E0000C94A8194F925F926F927F92AF92BF9231
:1008F000CF92EF920F931F93CF93DF930E941A2111
:10090000EC010E941A2168E270E00E946720BC019D
:10091000882777FD8095982F0E94BE1E2B013C01F1
:10092000CE016AE470E00E946720BC01882777FD51
:100930008095982F0E94BE1EAB01BC01EFEEAE2E3B
:10094000E2E0BE2EF7E0CF2EA9E0EA2E930182016D
:100950008DEF94E00E9484198DEF94E0DF91CF91A8
:100960001F910F91EF90CF90BF90AF907F906F90BD
:100970005F904F900C94A8194F925F926F927F9264
:10098000AF92BF92CF92EF920F931F93CF93DF93CB
:100990000E941A21EC010E941A216CE270E00E9470
:1009A0006720BC01882777FD8095982F0E94BE1E86
:1009B0002B013C01CE016BE470E00E946720BC017A
:1009C000882777FD8095982F0E94BE1EAB01BC0141
:1009D000BCEEAB2EB2E0BB2EC3E0CC2ED8E0ED2EA9
:1009E0009301820187E295E00E94841987E295E0F5
:1009F000DF91CF911F910F91EF90CF90BF90AF906B
:100A00007F906F905F904F900C94A8194F925F92D7
:100A10006F927F92AF92BF92CF92EF920F931F93FC
:100A2000CF93DF930E941A21EC010E941A2164E205
:100A300070E00E946720BC01882777FD8095982F81
:100A40000E94BE1E2B013C01CE0169E470E00E94B1
:100A50006720BC01882777FD8095982F0E94BE1ED5
:100A6000AB01BC0116EEA12E11E0B12E0AE0C02EA2
:100A70008BE0E82E930182018CE395E00E948419BB
:100A80008CE395E0DF91CF911F910F91EF90CF9084
:100A9000BF90AF907F906F905F904F900C94A8198B
:100AA0004F925F926F927F92AF92BF92CF92EF92EE
:100AB0000F931F93CF93DF930E941A21EC010E94A2
:100AC0001A216BE270E00E946720BC01882777FD45
:100AD0008095982F0E94BE1E2B013C01CE016CE434
:100AE00070E00E946720BC01882777FD8095982FD1
:100AF0000E94BE1EAB01BC0192EEA92E91E0B92E60
:100B000024E0C22E37E0E32E9301820182E195E0DA
:100B10000E94841982E195E0DF91CF911F910F919E
:100B2000EF90CF90BF90AF907F906F905F904F907D
:100B30000C94A81980E88093610081E080936100A3
:100B40008FE30E943B198091060390910703019760
:100B500051F40E9485020E94E8020E9408030E944C
:100B6000C7020E94A6028091060390910703029794
:100B700051F40E9485020E9408030E94C7020E944D
:100B8000A6020E9429031092800081E080938100D8
:100B900080936F0078940E941317859886985198D7
:100BA000279821985098209808952F923F924F921D
:100BB0005F926F927F928F929F92AF92BF92CF92ED
:100BC000DF92EF92FF920F931F93CF93DF9300D0AA
:100BD00000D0CDB7DEB76091AA047091AB048091CC
:100BE000AC049091AD040E94D51F0E948B1E4B0156
:100BF0005C018B016091AE047091AF048091B004F0
:100C00009091B1040E94D51F69837A838B839C8362
:100C10006091FD047091FE048091FF0490910005A5
:100C20000E94D51F0E948B1E6B017C016091010503
:100C30007091020580910305909104050E94D51FD3
:100C40002B013C0127E0820E911C8C149D04FCF0CA
:100C500069817A818B819C810E948B1E4B015C0192
:100C60001B01C301B2010E948B1EE8E08E0E911C95
:100C70008616970664F0F8E0CF0ED11CC016D10698
:100C800034F06A5F7F4F81E0621573050CF480E0F9
:100C90000F900F900F900F90DF91CF911F910F91B8
:100CA000FF90EF90DF90CF90BF90AF909F908F908C
:100CB0007F906F905F904F903F902F9008952F926C
:100CC0003F924F925F926F927F928F929F92AF92DC
:100CD000BF92CF92DF92EF92FF920F931F93CF9329
:100CE000DF9300D000D0CDB7DEB76091AA04709139
:100CF000AB048091AC049091AD040E94D51F0E947A
:100D00008B1E4B015C018B016091AE047091AF04AE
:100D10008091B0049091B1040E94D51F69837A83B9
:100D20008B839C836091270570912805809129050C
:100D300090912A050E94D51F0E948B1E6B017C0199
:100D400060912B0570912C0580912D0590912E05B9
:100D50000E94D51F2B013C0127E0820E911C8C14B0
:100D60009D04FCF069817A818B819C810E948B1E9D
:100D70004B015C011B01C301B2010E948B1EE8E024
:100D80008E0E911C8616970664F0F7E0CF0ED11CEC
:100D9000C016D10634F06E5F7F4F81E06215730597
:100DA0000CF480E00F900F900F900F90DF91CF9197
:100DB0001F910F91FF90EF90DF90CF90BF90AF9079
:100DC0009F908F907F906F905F904F903F902F906B
:100DD00008952F923F924F925F926F927F928F92DF
:100DE0009F92AF92BF92CF92DF92EF92FF920F93BA
:100DF0001F93CF93DF9300D000D0CDB7DEB76091C3
:100E0000AA047091AB048091AC049091AD040E944F
:100E1000D51F0E948B1E4B015C018B016091AE04BB
:100E20007091AF048091B0049091B1040E94D51FDD
:100E300069837A838B839C8360913C0570913D0527
:100E400080913E0590913F050E94D51F0E948B1E08
:100E50006B017C01609140057091410580914205D4
:100E6000909143050E94D51F2B013C0127E0820E83
:100E7000911C8C149D04FCF069817A818B819C818A
:100E80000E948B1E4B015C011B01C301B2010E9439
:100E90008B1EE8E08E0E911C8616970664F0F9E032
:100EA000CF0ED11CC016D10634F0665F7F4F81E0B3
:100EB000621573050CF480E00F900F900F900F9067
:100EC000DF91CF911F910F91FF90EF90DF90CF9026
:100ED000BF90AF909F908F907F906F905F904F905A
:100EE0003F902F9008952F923F924F925F926F9272
:100EF0007F928F929F92AF92BF92CF92DF92EF92AA
:100F0000FF920F931F93CF93DF9300D000D0CDB704
:100F1000DEB76091AA047091AB048091AC0490910B
:100F2000AD040E94D51F0E948B1E4B015C018B01FA
:100F30006091AE047091AF048091B0049091B104BF
:100F40000E94D51F69837A838B839C8360911205ED
:100F50007091130580911405909115050E94D51F7D
:100F60000E948B1E6B017C01609116057091170524
:100F700080911805909119050E94D51F2B013C0105
:100F800027E0820E911C8C149D04FCF069817A810B
:100F90008B819C810E948B1E4B015C011B01C30154
:100FA000B2010E948B1EE8E08E0E911C86169706F9
:100FB00064F0F6E0CF0ED11CC016D10634F06D5FA0
:100FC0007F4F81E0621573050CF480E00F900F9065
:100FD0000F900F90DF91CF911F910F91FF90EF90A5
:100FE000DF90CF90BF90AF909F908F907F906F9049
:100FF0005F904F903F902F9008952F923F924F9285
:101000005F926F927F928F929F92AF92BF92CF9298
:10101000DF92EF92FF920F931F93CF93DF93CDB7A1
:10102000DEB727970FB6F894DEBF0FBECDBF9F8304
:101030008E838B01DC016D917D918D919C910E943D
:10104000D51F0E948B1E6B017C017A836983EE8120
:10105000FF8164817581868197810E94D51F0E94DE
:101060008B1E4B015C017C836B83AE81BF815096EC
:10107000BC91BD83F80160817181828193810E945E
:10108000D51F0E948B1E2B013C01D80114966D9137
:101090007D918D919C9117970E94D51F0E948B1E68
:1010A000F801408950E0440D551D218930E0260F9C
:1010B000371F21503109AE81BF815196EC91F0E08C
:1010C000E80DF91DE617F7075CF0BD816B2F70E0A6
:1010D0006C0D7D1D6150710981E0461657060CF0BC
:1010E00080E0E981FA814E175F070CF480E04B81C4
:1010F0005C81421753070CF080E027960FB6F894F6
:10110000DEBF0FBECDBFDF91CF911F910F91FF903A
:10111000EF90DF90CF90BF90AF909F908F907F9097
:101120006F905F904F903F902F9008956F927F92B5
:101130008F929F92AF92BF92CF92DF92EF92FF92E7
:101140000F931F93CF93DF930DE213E0C9EED4E02A
:101150004DE3E42E43E0F42E57E4C52E53E0D52EA4
:1011600061E5A62E63E0B62E189B5FC070907004F8
:101170006090710490907204809073040E9426170E
:101180006F927F928F929F921F930F93DF93CF93D3
:101190000E947A2221E049EE54E060E088E00E945B
:1011A000FD1880916F048F9380916E048F93FF924E
:1011B000EF92DF93CF930E947A2221E049EE54E030
:1011C0006AE088E00E94FD18809109038F93809166
:1011D00008038F93DF92CF92DF93CF930E947A22FE
:1011E00021E049EE54E064E188E00E94FD1880911E
:1011F0000B038F9380910A038F93BF92AF92DF937B
:10120000CF930E947A2221E049EE54E06EE188E01B
:101210000E94FD180E9413178DB79EB74A960FB60D
:10122000F8949EBF0FBE8DBF9FCFDF91CF911F91CE
:101230000F91FF90EF90DF90CF90BF90AF909F9075
:101240008F907F906F9008958F929F92AF92BF92F0
:10125000CF92DF92EF92FF920F931F93CF93DF9382
:1012600080910A0390910B0305970CF4E5C180E08F
:1012700090E0A4E0B2E48093AA049093AB04A0931E
:10128000AC04B093AD0480E090E0A0E6B1E48093BC
:10129000AE049093AF04A093B004B093B10489B1AD
:1012A0001F9906C086958170C82F80E0D82F02C094
:1012B000CFEFDFEF83B1489905C081FB002700F92C
:1012C00010E002C00FEF1FEF60E874E08AEA94E0DC
:1012D0000E94FD07882321F0499B02C0CFEFDFEF7A
:1012E00061E575E08AEA94E00E94FD07882321F019
:1012F0001F9B02C0C1E0D0E06FEB74E08AEA94E08B
:101300000E94FD07882321F0199B02C00FEF1FEFF9
:1013100065E974E08AEA94E00E94FD07882311F0F1
:10132000489906C00115110529F4209719F484C1C4
:1013300001E010E080916D044801AA2497FCA0947C
:10134000BA2C6E01EE24D7FCE094FE2C811130C043
:10135000C501B4010E94BE1E9B01AC01609127052E
:10136000709128058091290590912A050E94BB1D46
:1013700060932705709328058093290590932A058B
:10138000C701B6010E94BE1E9B01AC0160912B05F6
:1013900070912C0580912D0590912E050E94BB1D0A
:1013A00060932B0570932C0580932D0590932E054B
:1013B000C501B4010E94BE1E4B015C019B01AC0142
:1013C00060913C0570913D0580913E0590913F05EF
:1013D0000E94BB1D60933C0570933D0580933E05C4
:1013E00090933F05C701B6010E94BE1E6B017C01B0
:1013F0009B01AC01609140057091410580914205CF
:10140000909143050E94BB1D609340057093410578
:101410008093420590934305A50194016091FD04DA
:101420007091FE048091FF04909100050E94BB1D05
:101430006093FD047093FE048093FF049093000575
:10144000A701960160910105709102058091030545
:10145000909104050E94BB1D6093010570930205E5
:101460008093030590930405A501940160911205F2
:101470007091130580911405909115050E94BB1D74
:1014800060931205709313058093140590931505CE
:10149000A7019601609116057091170580911805B6
:1014A000909119050E94BB1D609316057093170556
:1014B0008093180590931905A50194016091BF04CC
:1014C0007091C0048091C1049091C2040E94BB1D20
:1014D0006093BF047093C0048093C1049093C204CE
:1014E000A70196016091C3047091C4048091C50462
:1014F0009091C6040E94BB1D6093C3047093C40402
:101500008093C5049093C604A50194016091800462
:101510007091810480918204909183040E94BB1D8C
:101520006093800470938104809382049093830479
:10153000A7019601609184047091850480918604CE
:10154000909187040E94BB1D60938404709385046E
:101550008093860490938704A5019401609195047B
:101560007091960480919704909198040E94BB1DFD
:1015700060939504709396048093970490939804D5
:10158000A70196016091990470919A0480919B043F
:1015900090919C040E94BB1D6093990470939A04DF
:1015A00080939B0490939C04A50194016091510544
:1015B0007091520580915305909154050E94BB1D76
:1015C0006093510570935205809353059093540591
:1015D000A7019601609155057091560580915705B8
:1015E000909158050E94BB1D609355057093560558
:1015F000809357059093580587E295E00E94A819BB
:101600008CE395E00E94A81982E195E00E94A81958
:101610008DEF94E00E94A8190E944B02DF91CF91B8
:101620001F910F91FF90EF90DF90CF90BF90AF9000
:101630009F908F900C941317DF91CF911F910F9172
:10164000FF90EF90DF90CF90BF90AF909F908F90E2
:1016500008952F923F924F925F926F927F928F9256
:101660009F92AF92BF92CF92DF92EF92FF920F9331
:101670001F93CF93DF93CDB7DEB728970FB6F894BB
:10168000DEBF0FBECDBF10926C047DEF272E74E03D
:10169000372ED1018D919D910D90BC91A02D898304
:1016A0009A83AB83BC839C01AD016091AA047091C5
:1016B000AB048091AC049091AD040E94BA1D4B0123
:1016C0005C0101E015E0D8018D919D910D90BC91D8
:1016D000A02D8D839E83AF83B8879C01AD0160915F
:1016E000AE047091AF048091B0049091B1040E9457
:1016F000BA1D6B017C01A5019401C501B4010E94D2
:10170000721F2B013C01A7019601C701B6010E947F
:10171000721F9B01AC01C301B2010E94BB1D0E945C
:10172000F91F2B013C012DEC3CEC4CE45EE3C501C0
:10173000B4010E94721F4B015C012DEC3CEC4CE4A7
:101740005EE3C701B6010E94721F6B017C01A30119
:101750009201C501B4010E94231E9B01AC01698165
:101760007A818B819C810E94BB1DF1016083718312
:1017700082839383A3019201C701B6010E94231EB5
:101780009B01AC016D817E818F8198850E94BB1D7C
:10179000D8016D937D938D939C931397C1012896E7
:1017A0000FB6F894DEBF0FBECDBFDF91CF911F9172
:1017B0000F91FF90EF90DF90CF90BF90AF909F90F0
:1017C0008F907F906F905F904F903F902F900C94F0
:1017D000A8190F931F93CF93DF931F92CDB7DEB756
:1017E000182F5F934F933F932F934BE553E05F93F5
:1017F0004F931F9284E18F9349EE54E05F934F9390
:1018000069830E944A220FB6F894DEBF0FBECDBF97
:10181000202F49EE54E06981812F0F90DF91CF9105
:101820001F910F910C94FD180F93CF93DF9380912C
:101830006C04813009F05DC0C3E0D0E021E041E6F6
:1018400053E06CE082E00E94FD1821E04CE653E09A
:1018500068E182E00E94FD1860916E0470916F044F
:10186000882777FD8095982F0E94BE1E9B01AC01B2
:1018700001E068E188E20E94E90B21E045E753E0DE
:1018800060E282E00E94FD1860910A0370910B03F0
:10189000882777FD8095982F0E94BE1E9B01AC0182
:1018A00060E288E20E94E90B0E9413172FEF89E69D
:1018B00098E1215080409040E1F700C000000E9474
:1018C000261780910A0390910B03019690930B03C6
:1018D00080930A032FEF80E792E0215080409040F0
:1018E000E1F700C000000E9413172197209709F02C
:1018F000A5CFDF91CF910F9108951F93CF93DF93E1
:1019000000D0CDB7DEB7182F5F934F9344E453E078
:101910005F934F931F9284E18F9349EE54E05F935E
:101920004F932A8369830E944A220FB6F894DEBF40
:101930000FBECDBF2A8149EE54E06981812F0F90FF
:101940000F90DF91CF911F910C94FD180F931F936F
:10195000CF93DF93C3E0D0E001E010E021E0AE01DF
:1019600068E18AE20E947D0C21E04EE753E06CE0E2
:1019700088E00E94FD180E9413172FE381E298E08F
:10198000215080409040E1F700C000000E942617DF
:1019900010930B0300930A0321972097F9F6DF9128
:1019A000CF911F910F910895CF93DF938FE30E9402
:1019B0003B1921E04DE853E06CE08CE00E94FD18FB
:1019C0000E9413170E94D4120E94ED128823E1F3A3
:1019D0000E945A158823C1F30E942617C3E0D0E065
:1019E00021E04CE953E06CE08CE00E94FD182FEF01
:1019F00084E39CE0215080409040E1F700C000006B
:101A00000E9413170E9426172197209749F72FEF5E
:101A100084E39CE0215080409040E1F700C000004A
:101A2000DF91CF910895FC0101900020E9F7BF01FB
:101A300061507109681B790B0C949F139F938F93CE
:101A400084E493E09F938F931F9288E08F9384E7C1
:101A500094E09F938F930E944A228DB79EB7089679
:101A60000FB6F8949EBF0FBE8DBF84E794E00C9430
:101A7000130D89EA93E00E94130D6091AA047091FE
:101A8000AB048091AC049091AD040E948B1ECB01FD
:101A90000E941E0D8CE20E9440136091AE04709172
:101AA000AF048091B0049091B1040E948B1ECB01D1
:101AB0000E941E0D85EB93E00E94130D88EB93E0CE
:101AC0000E94130D80916E0490916F040E941E0D70
:101AD00080EC93E00E94130D80910803909109031C
:101AE0000E941E0D89EC93E00E94130D80910A0361
:101AF00090910B030E941E0D82ED93E00C94130D48
:101B00008F929F92AF92BF92CF92DF92EF92FF920D
:101B10000F931F93CF93DF936091AA047091AB044E
:101B20008091AC049091AD040E94D51F6B017C01A3
:101B30000E948B1EEB018090AE049090AF04A090A9
:101B4000B004B090B104C501B4010E94D51F0E9439
:101B50008B1E8B018091060390910703019709F07A
:101B600080C020E030E040EC51E4C501B4010E94A7
:101B70001F1E87FF09C020916D0491E080E02111B4
:101B800090E0692F782F02C060E070E0882777FD31
:101B90008095982F0E94BE1E0E94D51F20E030E045
:101BA000A9010E941F1E882361F080E090E0A0EC54
:101BB000B1E48093AE049093AF04A093B004B093CB
:101BC000B10420E030E044E152E4C701B6010E94D4
:101BD0001F1E1816F4F06091AE047091AF0480914E
:101BE000B0049091B1040E94D51F20E030E040EC99
:101BF00051E40E941F1E87FF0CC080E090E0A0EC23
:101C0000B1E48093AE049093AF04A093B004B0937A
:101C1000B10420E030E044E152E4C701B6010E9483
:101C20006E1F87FD1EC06091AE047091AF0480915D
:101C3000B0049091B1040E94D51F20E030E040EC48
:101C400051E40E941F1E87FF0CC080E090E0A0ECD2
:101C5000B1E48093AE049093AF04A093B004B0932A
:101C6000B104CC34D10540F01092B2041092B30408
:101C70001092B4041092B5040732110540F010928E
:101C8000B6041092B7041092B8041092B9041C164E
:101C90001D06A4F080E090E0A0E8BFE38093AA04D2
:101CA0009093AB04A093AC04B093AD041092B20433
:101CB0001092B3041092B4041092B50420E030E006
:101CC00040E051E46091AA047091AB048091AC04AF
:101CD0009091AD040E94BB1D20E030E046EA52E442
:101CE0000E946E1F87FD14C080E090E0A6E9B2E478
:101CF0008093AA049093AB04A093AC04B093AD047A
:101D00001092B2041092B3041092B4041092B5046D
:101D100020E030E040E85FE36091AE047091AF04F2
:101D20008091B0049091B1040E941F1E87FF14C0DF
:101D300080E090E0A0E8BFE38093AE049093AF040E
:101D4000A093B004B093B1041092B6041092B704FB
:101D50001092B8041092B90420E030E040E151E460
:101D60006091AE047091AF048091B0049091B10481
:101D70000E94BB1D20E030E04CE352E40E946E1F45
:101D800087FD14C080E090E0A8E1B2E48093AE0447
:101D90009093AF04A093B004B093B1041092B60432
:101DA0001092B7041092B8041092B904499B1EC057
:101DB0001092B2041092B3041092B4041092B504BD
:101DC00020E030E040E85FE36091AE047091AF0442
:101DD0008091B0049091B1040E94BA1D6093AE044A
:101DE0007093AF048093B0049093B1041F9B1EC006
:101DF0001092B2041092B3041092B4041092B5047D
:101E000020E030E040E85FE36091AE047091AF0401
:101E10008091B0049091B1040E94BB1D6093AE0408
:101E20007093AF048093B0049093B104199B16C0D3
:101E300020E030E040E85FE36091AA047091AB04D9
:101E40008091AC049091AD040E94BA1D6093AA04E5
:101E50007093AB048093AC049093AD04489B16C080
:101E600020E030E040E85FE36091AA047091AB04A9
:101E70008091AC049091AD040E94BB1D6093AA04B4
:101E80007093AB048093AC049093AD040E94131341
:101E9000882389F10E94F0128136910529F480E0AF
:101EA00090E0A0E8BFEB07C08436910569F480E0BC
:101EB00090E0A0E8BFE38093AA049093AB04A093C2
:101EC000AC04B093AD0417C08337910529F480E0CA
:101ED00090E0A0E8BFE307C08737910561F480E098
:101EE00090E0A0E8BFEB8093AE049093AF04A09382
:101EF000B004B093B104DF91CF911F910F91FF9087
:101F0000EF90DF90CF90BF90AF909F908F900C9408
:101F1000390DCF92DF92EF92FF92CF930E94800D06
:101F20008091080390910903892B09F0A8C10E94B0
:101F30006B190E94261721E046ED53E06AE084E128
:101F40000E94FD1821E048EB53E064E184E10E9427
:101F5000FD1840916E0450916F0421E064E182E32A
:101F60000E947D0C21E041EE53E06EE184E10E948D
:101F7000FD1840910A0350910B0321E06EE182E3CA
:101F80000E947D0C0E9413177D9902C07E9B73C135
:101F90000E9426178FEF9FEF90930B0380930A0305
:101FA00083E090E090930903809308030E945B0212
:101FB0000E9477020E94131780910A0390910B03ED
:101FC000019690930B0380930A03892B39F40E94A6
:101FD00026177D9901C07E990E94A60C80910A0364
:101FE00090910B03019789F50E945B028AEA94E0C5
:101FF0000E94A81984ED94E00E94A8198DEF94E046
:102000000E94A8198CE395E00E94A81987E295E048
:102010000E94A8190E94290B0E9413170E942617DC
:102020000E94D505882389F00E949A0589EE93E0E5
:102030000E94130D809108039091090301979093DA
:1020400009038093080310926D040E945F068823A1
:1020500039F081E080936D0487E094E00E94130DD5
:1020600080916D048130F1F520E030E040E051E4F2
:102070006091AA047091AB048091AC049091AD047E
:102080000E94BA1D60932705709328058093290547
:1020900090932A058091AE049091AF04A091B00472
:1020A000B091B10480932B0590932C05A0932D053E
:1020B000B0932E050E945B0287E295E00E94A8196A
:1020C0008AEA94E00E94A81984ED94E00E94A8197D
:1020D0008DEF94E00E94A8198CE395E00E94A81966
:1020E0000E9413170E94E906882309F445C0C09195
:1020F0006D04C13009F040C080916C0481113CC076
:1021000010926D040E942617C0936C040E94140C58
:1021100081E294E00E94130D80910A0390910B03D9
:102120000E941E0D84ED93E00E94130D0E9426175D
:1021300080910A0390910B030297F4F081E294E0FE
:102140000E94130D80910A0390910B030E941E0DB3
:1021500010926D040E9428040E9450050E944A03B8
:102160000E9406050E94BC040E94720482E090E076
:1021700090930703809306030E94D505882389F076
:102180000E949A0589EE93E00E94130D8091080346
:10219000909109030197909309038093080310928B
:1021A0006D0480910A0390910B0302970CF463C0B5
:1021B00082E090E090930703809306030E94261725
:1021C00010926C040E945B028CE395E00E94A819B7
:1021D00087E295E00E94A8190E944B028AEA94E0E7
:1021E0000E94A8190E94240982E195E00E94A81982
:1021F000C12CD12CF8ECEF2EF2ECFF2EC092D404BF
:10220000D092D504E092D604F092D70480E090E01A
:10221000A7E4B3EC8093D8049093D904A093DA0494
:10222000B093DB040E94290B0E9473078823E9F016
:10223000C0921205D0921305E0921405F092150594
:10224000C0921605D0921705E0921805F092190574
:1022500080916E0490916F040A9690936F0480931E
:102260006E0488E394E00E94130D8DEF94E00E94C9
:10227000A8190E9413170E9413170E941317809128
:10228000080390910903892B09F476C180910A0310
:1022900090910B03019679F40E945B020E947702F1
:1022A0000E94131780910A0390910B03019690935B
:1022B0000B0380930A0380910A0390910B03892BEF
:1022C00039F40E9426177D9901C07E990E94A60CC0
:1022D00080910A0390910B03019789F50E945B029C
:1022E0008AEA94E00E94A81984ED94E00E94A8195B
:1022F0008DEF94E00E94A8198CE395E00E94A81944
:1023000087E295E00E94A8190E94290B0E941317EA
:102310000E9426170E94D505882389F00E949A05FD
:1023200089EE93E00E94130D8091080390910903B8
:102330000197909309038093080310926D040E9403
:102340005F06882339F081E080936D0487E094E094
:102350000E94130D80916D048130F1F520E030E092
:1023600040E051E46091AA047091AB048091AC0408
:102370009091AD040E94BA1D6093270570932805C3
:102380008093290590932A058091AE049091AF0423
:10239000A091B004B091B10480932B0590932C05CB
:1023A000A0932D05B0932E050E945B0287E295E075
:1023B0000E94A8198AEA94E00E94A81984ED94E08A
:1023C0000E94A8198DEF94E00E94A8198CE395E073
:1023D0000E94A8190E9413170E94E906882309F495
:1023E00045C0C0916D04C13009F040C080916C04BB
:1023F00081113CC010926D040E942617C0936C049A
:102400000E94140C83E594E00E94130D80910A034E
:1024100090910B030E941E0D84ED93E00E94130D1A
:102420000E94261780910A0390910B030297F4F003
:1024300083E594E00E94130D80910A0390910B03B1
:102440000E941E0D10926D040E9428040E945005E7
:102450000E944A030E9406050E94BC040E94720466
:1024600082E090E090930703809306030E94D505D5
:10247000882389F00E949A0589EE93E00E94130D4B
:102480008091080390910903019790930903809329
:10249000080310926D0480910A0390910B03029738
:1024A0000CF463C082E090E09093070380930603EE
:1024B0000E94261710926C040E945B028CE395E048
:1024C0000E94A81987E295E00E94A8190E944B0279
:1024D0008AEA94E00E94A8190E94240982E195E00A
:1024E0000E94A819C12CD12CE8ECEE2EE2ECFE2EB5
:1024F000C092D404D092D504E092D604F092D704CE
:1025000080E090E0A7E4B3EC8093D8049093D904E2
:10251000A093DA04B093DB040E94290B0E94730796
:102520008823E9F0C0921205D0921305E0921405B9
:10253000F0921505C0921605D0921705E092180585
:10254000F092190580916E0490916F040A96909311
:102550006F0480936E0488E394E00E94130D8DEF66
:1025600094E00E94A8190E941317CF91FF90EF905A
:10257000DF90CF900C949608CF91FF90EF90DF9072
:10258000CF9008950E949A050E94D40C0E94890F52
:102590008FE19EE40197F1F700C00000F7CF809132
:1025A000E80080FFFCCF089581E08093D70080EAA7
:1025B0008093D80082E189BD09B400FEFDCF80E997
:1025C0008093D8001092E00010927F0410927C0457
:1025D0008CE08093E2007894089580917F040895C0
:1025E0009FB7F89480917F04811104C09FBF8FEF43
:1025F0009FEF089583E08093E9002BE68091E80047
:1026000085FD05C082FFF2CF2093E800F7CF8091CF
:10261000F1002091E80025FD03C02BE62093E8009F
:102620009FBF90E008952FB7F89480917F048111A7
:1026300003C080E02FBF089583E08093E90080917C
:10264000F2008111F7CF9091E80092FFF2CF95FD53
:10265000F0CF9BE69093E800EDCF80917F04882334
:1026600059F08FB7F89493E09093E9002BE690919E
:10267000E80095FD02C08FBF08952093E800F7CFD2
:1026800090917F04911102C08FEF08959FB7F89445
:1026900024E02093E90020917D04222341F0209141
:1026A000E80025FD02C09FBFEFCF10927D0420916E
:1026B000E400275E34E04091E80045FD12C09FBF72
:1026C0009091E400921304C081E080937D04DCCFFC
:1026D00090917F049923C1F29FB7F8943093E90059
:1026E000EACF8093F1008091E80085FD03C08AE382
:1026F0008093E80085E080937E049FBF80E008958A
:1027000090917F04992351F09FB7F89424E020938F
:10271000E9002091E80025FD03C09FBF8FEF0895D9
:102720008093F1008091E80085FD03C08AE38093E7
:10273000E80085E080937E049FBF80E00895DC017F
:1027400080917F04811102C08FEF08958FB7F894B4
:1027500094E09093E90090917D04992341F0909149
:10276000E80095FD02C08FBFEFCF10927D0424E0FA
:1027700030E44AE355E06115710511F480E00895F5
:102780009091E400975EE091E800E5FD12C08FBFF4
:102790008091E400891304C081E080937D04D4CF4C
:1027A00080917F04882381F28FB7F8942093E90009
:1027B000EACF9091F200E32FE91B9E2FE617170650
:1027C00011F008F0962FE92FF0E06E1B7F0B91348B
:1027D00008F041C1E251FC4E0C947B202F152B15C3
:1027E000271523151F151B15171513150F150B1579
:1027F00007150315FF14FB14F714F314EF14EB146F
:10280000E714E314DF14DB14D714D314CF14CB1460
:10281000C714C314BF14BB14B714B314AF14AB1450
:10282000A714A3149F149B14971493148F148B1440
:10283000871483147F147B14771473146F146B1430
:10284000671463145F145B14571453144F144B1420
:10285000471443143F143B14371433142F149C9122
:102860009093F10011969C919093F10011969C9198
:102870009093F10011969C919093F10011969C9188
:102880009093F10011969C919093F10011969C9178
:102890009093F10011969C919093F10011969C9168
:1028A0009093F10011969C919093F10011969C9158
:1028B0009093F10011969C919093F10011969C9148
:1028C0009093F10011969C919093F10011969C9138
:1028D0009093F10011969C919093F10011969C9128
:1028E0009093F10011969C919093F10011969C9118
:1028F0009093F10011969C919093F10011969C9108
:102900009093F10011969C919093F10011969C91F7
:102910009093F10011969C919093F10011969C91E7
:102920009093F10011969C919093F10011969C91D7
:102930009093F10011969C919093F10011969C91C7
:102940009093F10011969C919093F10011969C91B7
:102950009093F10011969C919093F10011969C91A7
:102960009093F10011969C919093F10011969C9197
:102970009093F10011969C919093F10011969C9187
:102980009093F10011969C919093F10011969C9177
:102990009093F10011969C919093F10011969C9167
:1029A0009093F10011969C919093F10011969C9157
:1029B0009093F10011969C919093F10011969C9147
:1029C0009093F10011969C919093F10011969C9137
:1029D0009093F10011969C919093F10011969C9127
:1029E0009093F10011969C919093F10011969C9117
:1029F0009093F10011969C919093F10011969C9107
:102A00009093F10011969C919093F10011969C91F6
:102A10009093F10011969C919093F10011969C91E6
:102A20009093F10011969C919093F10011969C91D6
:102A30009093F10011969C919093F10011969C91C6
:102A40009093F10011969C919093F10011969C91B6
:102A50009093F10011969C919093F10011969091B2
:102A6000E80095FF4093E80050937E048FBF83CE2B
:102A70008FB7F89490917E04992341F094E090935D
:102A8000E9009AE39093E80010927E048FBF0895C6
:102A900060910C0370910D0380910E0390910F03D0
:102AA00008958091100308958091110308958091F5
:102AB0001203089580917C0408959FB7F8942091A3
:102AC0007F04211103C09FBF8FEF089522E0209360
:102AD000E9002091E80025FFF6CF21EA2093F100DC
:102AE00020E22093F1001092F1001092F100109278
:102AF000F1001092F10021E02093F1001092F1001A
:102B00008093F1008AE38093E8009FBF80E00895FE
:102B10001F920F920FB60F9211248F939F93809163
:102B2000E1001092E10083FF11C01092E90091E0F2
:102B30009093EB001092EC0092E19093ED0098E0FE
:102B40009093F00010927F0410927C0482FF13C0D7
:102B500080917F04882379F080917E04882359F046
:102B6000815080937E04811106C084E08093E90047
:102B70008AE38093E8009F918F910F900FBE0F9092
:102B80001F9018951F920F920FB60F921124EF927B
:102B9000FF920F931F932F933F934F935F936F93E6
:102BA0007F938F939F93AF93BF93CF93DF93EF93D5
:102BB000FF931092E9008091E80083FF74C0D091E8
:102BC000F100C091F1008091F100E090F100FE2C45
:102BD000E82E8091F1000091F100102F082F8091D4
:102BE000F1009091F10022EF2093E800C63009F047
:102BF00066C02CEA30E0F90145915491E416F506DF
:102C000009F04AC0F901329645915491041715070D
:102C100009F042C0F901349645915491F901369674
:102C2000E4918F3F910519F010F08FEF90E0E817D5
:102C300008F48E2F3EEF9091E800292F2570D9F3EC
:102C400092FD13C0982F813108F090E1FA01292FED
:102C500021112FC0490F511DE82FE91B9E2F3093E2
:102C6000E800E11124C0803110F5FF91EF91DF9170
:102C7000CF91BF91AF919F918F917F916F915F9114
:102C80004F913F912F911F910F91FF90EF900F90D7
:102C90000FBE0F901F901895295F3F4F40E0263DD3
:102CA000340709F0A8CF81E28093EB00DECF892FB3
:102CB000C2CF64916093F10021503196C9CFC530E5
:102CC00051F48EEF8093E8000E94CF128E2D806821
:102CD0008093E300CACFC93069F5D111E4CFE09207
:102CE0007F0410927C0410927E048EEF8093E800A3
:102CF00021E08BE691E02093E900AC014F5F5F4F4C
:102D0000FC0134913093EB00332391F0FA014491AC
:102D10004093EC003196E4910396E093ED002F5F31
:102D2000253049F78EE18093EA001092EA009DCFAA
:102D3000CA01F5CFC83069F4D03809F0B4CF0E9489
:102D4000CF1280917F048093F1008EEF8093E80092
:102D50008CCFC13281F4D13A09F0A5CF0E94CF12B5
:102D6000ECE0F3E083E193E021912093F1008E17F2
:102D70009F07D1F7EACFC032A9F4D13209F093CF3F
:102D80008091E80082FFFCCFECE0F3E083E193E088
:102D90002091F10021938E179F07D1F78BEF80933D
:102DA000E800D3CFC23241F4D13209F07CCFE092B7
:102DB0007C040E94CF12C9CFC11112C00E94CF1251
:102DC000D23849F40093E900C091EB00C5FBCC2751
:102DD000C0F91092E900C093F1001092F100B5CF54
:102DE0008C2F8D7F813009F05ECFD23009F05BCF20
:102DF000EF2809F058CF0F778FEF800F843008F05D
:102E000052CF8EEF8093E8000093E900C33009F4BD
:102E10004ACF89E18093EB0081E090E001C0880F08
:102E20000A95EAF780CFCF93DF9360E080E00E94BD
:102E30007819C6E6D5E0699181E00E941D1987E006
:102E4000CE35D807C1F7DF91CF910895E6E6F5E0DA
:102E5000119287E0EE35F807D9F708958435D8F454
:102E60006033C8F4962F969596959695E82FF0E0E6
:102E700084E5989FE00DF11D1124EA59FA4F208155
:102E8000677081E090E001C0880F6A95EAF74423FB
:102E900019F0822B8083089580958223FBCF2F9297
:102EA0003F924F925F926F927F928F929F92AF92DA
:102EB000BF92CF92DF92EF92FF920F931F93CF9327
:102EC000DF93CDB7DEB72E970FB6F894DEBF0FBEF7
:102ED000CDBF89836B83242E122F841330C0E62E3E
:102EE000F12CC22ED12C2B812117E8F4CE14DF0453
:102EF0000CF01FC12E960FB6F894DEBF0FBECDBFEB
:102F0000DF91CF911F910F91FF90EF90DF90CF90C5
:102F1000BF90AF909F908F907F906F905F904F90F9
:102F20003F902F900895EC14FD0424F3402F6E2D54
:102F300089810E942E1721E0E21AF108D4CF3B814B
:102F4000321320C08981E82EF12CC42ED12C998116
:102F5000921560F4CE14DF046CF2402F6B818E2D3D
:102F60000E942E173FEFE31AF30AF1CFEC14FD0491
:102F70000CF2402F6B818E2D0E942E1781E0E81AF3
:102F8000F108E5CF2981421728F0812F1B818B831F
:102F9000222E49839981892F90E09A838983312C4D
:102FA000BC0162197309072E000C880B990B0E9453
:102FB000BE1E6D837E838F8398873B81232F30E0F5
:102FC0003C832B83812F90E09E878D87B901681BFE
:102FD000790B072E000C880B990B0E94BE1E4B012B
:102FE0005C012D813E814F8158850E94231E2B015B
:102FF0003C0120E030E0A9010E946E1F87FF04C061
:1030000077FA709477F87094C12CD12C760120E077
:1030100030E0A9016D817E818F8198850E946E1FAD
:1030200018160CF07FC029813A81221533050CF463
:1030300061CF122D402F6D85822D0E942E17A30186
:103040009201C701B6010E94BB1D6B017C0120E00B
:1030500030E040E05FE30E946E1F87FD10C020E07B
:1030600030E0A901C501B4010E946E1F1816BCF41E
:103070008B819C812D853E8582179307BCF420E0CF
:1030800030E0A9016D817E818F8198850E946E1F3D
:1030900018160CF043C03FEF231A330AB8CF8B81C8
:1030A0009C812D853E85281739074CF3402F6D856F
:1030B000812F0E942E1721E030E03A87298720E0F7
:1030C00030E0A901C501B4010E946E1F181614F06A
:1030D0001A86198681E090E09C878B8720E030E09B
:1030E000A901C501B4010E941F1E87FD02C01C86F4
:1030F0001B8689859A852B853C85821B930B2D85A4
:103100003E85280F391F3E872D8720E030E040E8BC
:103110005FE3C701B6010E94BA1D97CF81E0281A6C
:10312000310875CF89819A81281639060CF081CF34
:10313000E1CE402F6E2D89810E942E179FEFE91A54
:10314000F90AD1CE7F928F929F92AF92BF92CF9287
:10315000DF92EF92FF920F931F93CF93DF93982EFE
:10316000862E722E4052550B25E0249FC001259FCC
:10317000900D1124F12CE12C9C012B583E4F69013C
:10318000AA24A394B12CF601EE0DFF1DE491711059
:1031900001C0E09510E000E0CE2FD0E0A501002EA8
:1031A00002C0440F551F0A94E2F74C235D23002E02
:1031B00002C0559547950A94E2F7682D600F892D56
:1031C0000E942E170F5F1F4F0830110539F73FEF90
:1031D000E31AF30A939485E0E816F104A1F6DF916F
:1031E000CF911F910F91FF90EF90DF90CF90BF9004
:1031F000AF909F908F907F900895EF92FF920F93E2
:103200001F93CF93DF93D82FF62E8A01E22EC0E0D2
:10321000F801EC0FF11D4081411107C0DF91CF9102
:103220001F910F91FF90EF9008952E2D6F2D8D2FF0
:103230000E94A218DB5FCF5FEBCF95B19F7D40E28C
:10324000849F90011124922B95B95F9887E090E0BC
:1032500070E08F989B01082E02C0359527950A943F
:10326000E2F720FF06C02E9A8F9A019790F75F9A97
:1032700008952E98F9CFCF93C82F579A249A259A5C
:10328000269A879A2C985F9A2C9A61E280E00E9495
:103290001D196C2F606880E00E941D1964E080E0B9
:1032A0000E941D1963E180E00E941D196CE080E01E
:1032B0000E941D1960E280E00E941D196CE080E010
:1032C0000E941D1960E480E00E941D1960E880E002
:1032D000CF910C941D19CF93DF93C8EFD1E060E03C
:1032E00081E00E941D192197D1F7DF91CF910895B8
:1032F000CF93C82F606480E00E941D196C2F606816
:1033000080E0CF910C941D19AF92BF92CF92EF92B3
:103310000F931F93FC014083518362837383048363
:10332000158326833783E08AC18AB48AA38A81E021
:10333000828B108611861286138614861586168651
:1033400017861F910F91EF90CF90BF90AF90089587
:103350007F928F929F92AF92BF92CF92DF92EF9225
:10336000FF920F931F93CF93DF938C01DC01529652
:103370008C915297882309F474C06D917D918D9141
:103380009C910E94D51F0E948B1E6B015B01F8016E
:1033900064817581868197810E94D51FF4E5CF16DF
:1033A000D1040CF05EC0D8015096CC91D0E0CC0E88
:1033B000DD1E1C141D040CF054C00E948B1E6033D3
:1033C00071050CF04EC0F801218930E0260F371F3F
:1033D000121613060CF045C0279633E0D595C79515
:1033E0003A95E1F7762E912C812CD12CC12CD80165
:1033F00051968C918C151D04A1F19CF1F12CE12CBE
:1034000023C0C70123E0959587952A95E1F7D80158
:103410005396ED91FC91E80DF91DE80FF91F4081DD
:1034200050E0C701809590958770992702C0559507
:1034300047958A95E2F74170672D8A2D8E0D0E947F
:103440002E17BFEFEB1AFB0AF80180898E151F04B7
:1034500009F0BCF6FFEFCF1ADF0A8C0E9D1E7394A5
:10346000C6CFDF91CF911F910F91FF90EF90DF902A
:10347000CF90BF90AF909F908F907F900895A3E1E1
:10348000B0E0E5E4FAE10C9481207C011B016A01C3
:10349000FC0117821682838181FF66C3BE016F5FC4
:1034A0007F4F4B01F7019381F10193FD859193FFCC
:1034B00081911F01882309F453C3853239F493FDA8
:1034C000859193FF81911F01853239F4B70190E016
:1034D0000E94182256016501E5CF10E0512C20E032
:1034E0002032A0F48B3269F030F4803259F083320C
:1034F00069F420612CC08D3239F0803339F42160B9
:1035000026C02260246023C0286021C027FD27C078
:1035100030ED380F3A3078F426FF06C0FAE01F9FEE
:10352000300D1124132F13C06AE0569E300D112464
:10353000532E20620CC08E3221F426FD11C320646C
:1035400006C08C3611F4206802C0883641F4F101BF
:1035500093FD859193FF81911F018111C1CF9BEB59
:10356000980F933018F42061805E06C09BE9980F95
:10357000933008F0AAC12F7E26FF16E02F73722E1B
:10358000853621F4F22FF0647F2E08C0863621F4B0
:10359000622F6068762E02C01111115077FE07C0AD
:1035A0001C3348F444244394410E27E00BC01830E8
:1035B00030F4212F06C027E04CE3442E03C027E05F
:1035C00017E0412C560174E0A70EB11CF601608192
:1035D000718182819381042DA4010E942A216C01B2
:1035E000098100FF02C003FF06C071FC07C072FC26
:1035F00008C0612C08C03DE2632E05C02BE2622E9C
:1036000002C090E2692E802F8C7099F1662011F033
:1036100084E001C083E0851510F0512C0BC0581ACE
:1036200073FC08C0B70180E290E00E9418225A940F
:10363000C9F7F3CF662029F0B701862D90E00E94EC
:10364000182203FD03C009E513E002C005E513E0FD
:10365000F72DF0717F2EF8018491882309F476C24A
:1036600071108052B70190E00E9418220F5F1F4F27
:10367000F2CF77FE0FC04C0C04FF04C08A81813367
:1036800009F44A94141474F5F8E0F41578F588E018
:10369000482E2CC076FC2AC0812F90E08C159D0509
:1036A0009CF06CEFC6166FEFD60674F0772D70683D
:1036B000772E0AC0E2E0F0E0EC0FFD1FE10FF11DF4
:1036C0008081803319F411501111F4CF77FE0EC0B0
:1036D00044244394410E812F90E0C816D9062CF45F
:1036E0001C1904C04424439401C010E077FE07C0B5
:1036F0001C141D043CF496012F5F3F4F05C025E0CC
:1037000030E002C021E030E0662011F02F5F3F4F33
:10371000112331F0412F50E04F5F5F4F240F351FD1
:10372000452D50E02417350714F4521A01C0512CCE
:10373000872D897049F4552039F0B70180E290E077
:103740000E9418225A94F7CF662029F0B701862DDF
:1037500090E00E94182273FC09C0552039F0B7018F
:1037600080E390E00E9418225A94F7CF77FE5FC062
:103770009C2D8D2DD7FE02C090E080E0692E782E22
:1037800040E050E0C601841991099D878C8796011D
:1037900026193709280D391D812F90E0EE27FF27C4
:1037A000E81BF90BFF87EE87FFEF6F167F0669F4C2
:1037B000B7018EE290E02B8B3A8B488B598B0E949D
:1037C0001822598948893A892B89C614D70454F09C
:1037D0006C857D85661577052CF4F901E40FF51FDE
:1037E000818101C080E371E0671A71084F5F5F4F0C
:1037F000EE85FF856E167F066CF0B70190E02B8B8F
:103800003A8B488B598B0E9418222B893A89488918
:103810005989CACF6C147D0439F49A81963318F40F
:10382000953311F404FF81E3B70190E04BC08A8126
:10383000813309F00F7EB70190E00E941822111128
:1038400005C074FE18C085E490E017C0B7018EE291
:1038500090E00E94182282E066246394680EF401CE
:10386000E80FF11D8081B70190E00E9418221150ED
:1038700041F3862DF1CF85E690E0B7010E94182232
:10388000D7FC05C0C114D10439F404FF05C0D1949C
:10389000C194D1088DE201C08BE2B70190E00E9493
:1038A000182280E36AE0C616D1042CF08F5FFAE09C
:1038B000CF1AD108F7CFB70190E00E941822B701C4
:1038C000C601C0960E94182241C1833631F0833769
:1038D00079F0833509F058C021C0560172E0A70E77
:1038E000B11CF6018081898301E010E0640114C0FD
:1038F0005601F2E0AF0EB11CF601C080D18026FF68
:1039000003C0612F70E002C06FEF7FEFC6012B8B09
:103910000E940D228C012B892F7715C05601F2E0F1
:10392000AF0EB11CF601C080D18026FF03C0612F0D
:1039300070E002C06FEF7FEFC6012B8B0E94022266
:103940008C012B892068722E23FD1AC0852D90E0F2
:1039500008171907A8F4B70180E290E00E94182226
:103960005A94F4CFF60177FC859177FE81916F012F
:10397000B70190E00E94182251105A940150110989
:103980000115110579F7E2C0843611F0893651F539
:10399000560127FF09C0F4E0AF0EB11CF6016081AB
:1039A0007181828193810AC0F2E0AF0EB11CF601F1
:1039B00060817181882777FD8095982F022F0F767F
:1039C00097FF08C090958095709561957F4F8F4FB8
:1039D0009F4F00682AE030E0A4010E949C22C82E7C
:1039E000C8183EC0022F853721F40F7E2AE030E050
:1039F0001DC0097F8F3691F018F4883559F0B0C09A
:103A0000803719F0883711F0ABC0006104FF09C09E
:103A1000046007C024FF08C0066006C028E030E04C
:103A200005C020E130E002C020E132E0560107FF8E
:103A300009C0F4E0AF0EB11CF60160817181828192
:103A4000938108C0F2E0AF0EB11CF6016081718174
:103A500080E090E0A4010E949C22C82EC8180F7735
:103A600006FF0BC0202F2E7FC11650F404FF0AC0A2
:103A700002FD08C0202F2E7E05C0DC2C202F03C0A5
:103A8000DC2C01C0D12E24FF0DC0FE01EC0DF11D78
:103A90008081803311F4297E09C022FF06C0D394AF
:103AA000D39404C0822F867809F0D39423FD13C0E9
:103AB00020FF06C01C2DD51418F4150D1D19D52C8A
:103AC000D51468F4B70180E290E02B8B0E94182295
:103AD000D3942B89F5CFD51410F45D1801C0512C67
:103AE00024FF12C0B70180E390E02B8B0E941822C4
:103AF0002B8922FF17C021FF03C088E590E002C098
:103B000088E790E0B7010CC0822F867859F021FD3C
:103B100002C080E201C08BE227FD8DE2B70190E098
:103B20000E941822C11638F4B70180E390E00E9489
:103B300018221150F7CFCA94F401EC0DF11D8081C9
:103B4000B70190E00E941822C110F5CF552009F46A
:103B5000C2CCB70180E290E00E9418225A94F6CFBE
:103B6000F7018681978102C08FEF9FEF6396E2E1B4
:103B70000C949D205058BB27AA270ED075C166D142
:103B800030F06BD120F031F49F3F11F41EF45BC193
:103B90000EF4E095E7FB51C1E92F77D180F3BA1716
:103BA000620773078407950718F071F49EF58FC1BB
:103BB0000EF4E0950B2EBA2FA02D0B01B901900148
:103BC0000C01CA01A0011124FF27591B99F0593F8C
:103BD00050F4503E68F11A16F040A22F232F342FD4
:103BE0004427585FF3CF469537952795A795F04022
:103BF0005395C9F77EF41F16BA0B620B730B840B37
:103C0000BAF09150A1F0FF0FBB1F661F771F881FEE
:103C1000C2F70EC0BA0F621F731F841F48F4879546
:103C200077956795B795F7959E3F08F0B3CF939535
:103C3000880F08F09927EE0F979587950895D9D0AA
:103C400008F481E008950CD00FC107D140F0FED0F8
:103C500030F021F45F3F19F0F0C0511139C1F3C0C9
:103C600014D198F39923C9F35523B1F3951B550B40
:103C7000BB27AA2762177307840738F09F5F5F4F3F
:103C8000220F331F441FAA1FA9F333D00E2E3AF080
:103C9000E0E830D091505040E695001CCAF729D09A
:103CA000FE2F27D0660F771F881FBB1F26173707E9
:103CB0004807AB07B0E809F0BB0B802DBF01FF2719
:103CC00093585F4F2AF09E3F510568F0B6C000C17F
:103CD0005F3FECF3983EDCF3869577956795B79553
:103CE000F7959F5FC9F7880F911D9695879597F96E
:103CF0000895E1E0660F771F881FBB1F62177307E7
:103D00008407BA0720F0621B730B840BBA0BEE1FFB
:103D100088F7E095089504D06894B111D9C008954A
:103D2000BCD088F09F5790F0B92F9927B751A0F0D9
:103D3000D1F0660F771F881F991F1AF0BA95C9F73F
:103D400012C0B13081F0C3D0B1E00895C0C0672F78
:103D5000782F8827B85F39F0B93FCCF386957795EF
:103D60006795B395D9F73EF49095809570956195D8
:103D70007F4F8F4F9F4F0895E89409C097FB3EF403
:103D800090958095709561957F4F8F4F9F4F9923A8
:103D9000A9F0F92F96E9BB279395F6958795779526
:103DA0006795B795F111F8CFFAF4BB0F11F460FFE6
:103DB0001BC06F5F7F4F8F4F9F4F16C0882311F03E
:103DC00096E911C0772321F09EE8872F762F05C052
:103DD000662371F096E8862F70E060E02AF09A95ED
:103DE000660F771F881FDAF7880F9695879597F9E2
:103DF0000895990F0008550FAA0BE0E8FEEF16167C
:103E00001706E807F907C0F012161306E407F507CE
:103E100098F0621B730B840B950B39F40A2661F042
:103E2000232B242B252B21F408950A2609F4A140E5
:103E3000A6958FEF811D811D089597F99F6780E8F2
:103E400070E060E008959FEF80EC089500240A94EC
:103E50001616170618060906089500240A94121665
:103E60001306140605060895092E0394000C11F498
:103E7000882352F0BB0F40F4BF2B11F460FF04C045
:103E80006F5F7F4F8F4F9F4F089557FD9058440F9E
:103E9000551F59F05F3F71F04795880F97FB991FA9
:103EA00061F09F3F79F08795089512161306140666
:103EB000551FF2CF4695F1DF08C0161617061806F3
:103EC000991FF1CF86957105610508940895E894CE
:103ED000BB2766277727CB0197F908958ADF08F477
:103EE0008FEF08950BD0C0CFB1DF28F0B6DF18F008
:103EF000952309F0A2CFA7CF1124EACFC6DFA0F304
:103F0000959FD1F3950F50E0551F629FF001729F6E
:103F1000BB27F00DB11D639FAA27F00DB11DAA1F8D
:103F2000649F6627B00DA11D661F829F2227B00DDA
:103F3000A11D621F739FB00DA11D621F839FA00D65
:103F4000611D221F749F3327A00D611D231F849FB5
:103F5000600D211D822F762F6A2F11249F5750400C
:103F60008AF0E1F088234AF0EE0FFF1FBB1F661FA7
:103F7000771F881F91505040A9F79E3F510570F060
:103F80005CCFA6CF5F3FECF3983EDCF38695779548
:103F90006795B795F795E7959F5FC1F7FE2B880F5B
:103FA000911D9695879597F9089577DFE0F09E37F4
:103FB000D8F09639B8F49E3848F4672F782F8827C0
:103FC000985FF9CF86957795679593959539D0F356
:103FD000B62FB1706B0F711D811D20F487957795F9
:103FE0006795939544C05EC073CF11F40EF42BCF48
:103FF00059C053DFD0F39923D9F3CEF39F57550B14
:1040000087FF5ED00024A0E640EA900180585695D4
:10401000979528F4805C660F771F881F20F026177D
:104020003707480730F4621B730B840B20293129B2
:104030004A2BA69517940794202531254A2758F72F
:10404000660F771F881F20F026173707480730F4C0
:10405000620B730B840B200D311D411DA09581F760
:10406000B901842F9158880F9695879508958823D4
:1040700071F4772321F09850872B762F07C06623A1
:1040800011F499270DC09051862B70E060E02AF062
:104090009A95660F771F881FDAF7880F9695879590
:1040A00097F908959F3F31F0915020F487957795C7
:1040B0006795B795880F911D9695879597F90895FF
:1040C00091505040660F771F881FD2F7089597FBD5
:1040D000072E16F4009407D077FD09D00E94B8206F
:1040E00007FC05D03EF4909581959F4F08957095FB
:1040F00061957F4F0895EE0FFF1F0590F491E02D1D
:1041000009942F923F924F925F926F927F928F927B
:104110009F92AF92BF92CF92DF92EF92FF920F9356
:104120001F93CF93DF93CDB7DEB7CA1BDB0B0FB660
:10413000F894DEBF0FBECDBF09942A88398848881D
:104140005F846E847D848C849B84AA84B984C884B3
:10415000DF80EE80FD800C811B81AA81B981CE0FAA
:10416000D11D0FB6F894DEBF0FBECDBFED0108958F
:10417000AA1BBB1B51E107C0AA1FBB1FA617B7078D
:1041800010F0A61BB70B881F991F5A95A9F78095A9
:104190009095BC01CD0108958F929F92AF92BF92EE
:1041A000CF92DF92EF92FF92CF93DF93EC01688181
:1041B00079818A819B81611571058105910521F4C1
:1041C00064E279ED8BE597E02DE133EF41E050E0DB
:1041D0000E94FA2249015A019B01AC01A7EAB1E40D
:1041E0000E9419236B017C01ACEEB4EFA501940190
:1041F0000E942723C60ED71EE81EF91EF7FE06C032
:1042000081E0C81AD108E10880E8F80AC882D9829A
:10421000EA82FB82C6019F77DF91CF91FF90EF90FA
:10422000DF90CF90BF90AF909F908F9008950E94A5
:10423000CC20089583E193E00E94CC200895A0E073
:10424000B0E08093130390931403A0931503B093ED
:1042500016030895283008F027E03327DA01990F74
:10426000311D87FD916000966105710539F432605A
:104270002E5F3D9330E32A95E1F708959F3F30F09C
:1042800080387105610509F03C5F3C5F3D939130DA
:1042900008F08068911DDF93CF931F930F93FF92D7
:1042A000EF92192F987F9695E92F96959695E90F9D
:1042B000FF27E954FC4F99273327EE24FF24A70159
:1042C000E70105900894079428F4360FE71EF81EBE
:1042D000491F511D660F771F881F991F0694A1F76C
:1042E0000590079428F4E70EF81E491F561FC11DBC
:1042F000770F881F991F661F0694A1F705900794F2
:1043000028F4F80E491F561FC71FD11D880F991F8B
:10431000661F771F0694A1F70590079420F4490FB4
:10432000561FC71FD81F990F661F771F881F069437
:10433000A9F784911095177041F0D695C7955795B8
:104340004795F794E7941A95C1F7EDE5F3E0689483
:104350001590159135916591959105907FE2739532
:10436000E118F10A430B560BC90BD009C0F7E10C59
:10437000F11E431F561FC91FD01D7EF4703311F468
:104380008A95E6CFE894015030F0080F0AF4002730
:10439000021708F4202F2395022F7A3328F079E3AF
:1043A0007D932A95E9F710C07D932A9589F60694A6
:1043B00097956795379517951794E118F10A430B70
:1043C000560BC90BD00998F023957E9173957A33DB
:1043D00008F070E37C932013B8F77E9170617D93B1
:1043E00030F0839571E37D9370E32A95E1F7112412
:1043F000EF90FF900F911F91CF91DF91992787FD4B
:1044000090950895FC010590615070400110D8F717
:10441000809590958E0F9F1F0895FC01615070400C
:1044200001900110D8F7809590958E0F9F1F0895E9
:104430000F931F93CF93DF93182F092FEB018B81DD
:1044400081FD03C08FEF9FEF20C082FF10C04E811F
:104450005F812C813D81421753077CF4E881F9810B
:104460009F012F5F3F4F39832883108306C0E88563
:10447000F985812F0995892B29F72E813F812F5F9F
:104480003F4F3F832E83812F902FDF91CF911F913C
:104490000F910895AEE0B0E0E0E5F2E20C948F20D9
:1044A0000D891E898F89988D26E02C831A830983B4
:1044B00097FF02C080E090E801979E838D83AE0154
:1044C000455E5F4F698D7A8DCE0101960E943F1A3D
:1044D0004D815E8157FD0AC02F81388542175307F1
:1044E0000CF49A01F801E20FF31F10822E96E4E01B
:1044F0000C94AB20AEE0B0E0E0E8F2E20C948F2048
:104500000D891E8986E08C831A8309838FEF9FE7CC
:104510009E838D83AE01475E5F4F6F89788DCE019C
:1045200001960E943F1AEF81F885E00FF11F10827B
:104530002E96E4E00C94AB20FA01AA27283051F122
:10454000203181F1E8946F936E7F6E5F7F4F8F4FC4
:104550009F4FAF4FB1E03ED0B4E03CD0670F781F23
:10456000891F9A1FA11D680F791F8A1F911DA11D08
:104570006A0F711D811D911DA11D20D009F4689441
:104580003F912AE0269F11243019305D3193DEF6E9
:10459000CF010895462F4770405D4193B3E00FD09F
:1045A000C9F7F6CF462F4F70405D4A3318F0495D8A
:1045B00031FD4052419302D0A9F7EACFB4E0A6956D
:1045C0009795879577956795BA95C9F7009761058F
:1045D000710508959B01AC010A2E069457954795E5
:1045E00037952795BA95C9F7620F731F841F951FDA
:1045F000A01D0895052E97FB1EF400940E94112320
:1046000057FD07D00E942C2307FC03D04EF40C94D6
:10461000112350954095309521953F4F4F4F5F4F57
:10462000089590958095709561957F4F8F4F9F4F1E
:1046300008950E944E23A59F900DB49F900DA49FB6
:10464000800D911D11240895B7FF0C9419230E9429
:104650001923821B930B0895A1E21A2EAA1BBB1BE0
:10466000FD010DC0AA1FBB1FEE1FFF1FA217B3073E
:10467000E407F50720F0A21BB30BE40BF50B661F54
:10468000771F881F991F1A9469F760957095809518
:1046900090959B01AC01BD01CF010895A29FB0018F
:1046A000B39FC001A39F700D811D1124911DB29F66
:0E46B000700D811D1124911D0895F894FFCF07
:1046BE00FFFFFFFFFFFFFFFFFFFFFFFFFFFFFFFFFC
:1046CE00FFFFFFFFFFFFFFFFFFFFFFFFFFFFFFFFEC
:1046DE00FFFFFFFFFFFFFFFFFFFFFFFFFFFFFFFFDC
:1046EE00FFFFFFFFFFFFFFFFFFFFFFFFFFFFFFFFCC
:1046FE00FFFFFFFFFFFFFFFFFFFFFFFFFFFFFFFFBC
:10470E00FFFFFFFFFFFFFFFFFFFFFFFFFFFFFFFFAB
:10471E00FFFFFFFFFFFFFFFFFFFFFFFFFFFFFFFF9B
:10472E00FFFFFFFFFFFFFFFFFFFFFFFFFFFFFFFF8B
:10473E00FFFFFFFFFFFFFFFFFFFFFFFFFFFFFFFF7B
:10474E00FFFFFFFFFFFFFFFFFFFFFFFFFFFFFFFF6B
:10475E00FFFFFFFFFFFFFFFFFFFFFFFFFFFFFFFF5B
:10476E00FFFFFFFFFFFFFFFFFFFFFFFFFFFFFFFF4B
:10477E00FFFFFFFFFFFFFFFFFFFFFFFFFFFFFFFF3B
:10478E00FFFFFFFFFFFFFFFFFFFFFFFFFFFFFFFF2B
:10479E00FFFF183C7CFE0E003F8071C0E0C0C0C021
:1047AE00C6C0C6C0C0C0C0C0C0C0C0C0F87C3E7CC1
:1047BE003E7C3E7C3E1FC8442244224422442213A7
:1047CE00CFC7E3C7E3C7E3C7E3F3C00000000000B1
:1047DE0000000003C0000000000000000003C00045
:1047EE000000000000000003C000000000000000F8
:1047FE000003C0000000000000000003C01F800F77
:10480E00C000FC007E03C01F800FC000FC007E03B2
:10481E00C01F800FC000FC007E03C01F800FC000B1
:10482E00FC007E03C01F800FC000FC007E03C00092
:10483E000000000000000003C000000000000000A7
:10484E000003C0000000000000000003C0000000D4
:10485E00000000000003C07F800000000000FF0386
:10486E00C0408000000000008103C04080000000B6
:10487E0000008103C07F800000000000FF03C040E5
:10488E000000000000008003C04000000000000097
:10489E008003FFFFFFFFFFFFFFFFFFFFE0BFE53FCE
:1048AE00007F804C807F807F804C804C80427E3C9D
:1048BE0018FFA5BD242401000300FFFF00E1000046
:1048CE00000008010000004D616E616E20506174A1
:1048DE00656C20006E393833393935300054696DC6
:1048EE00653A20252E32643A252E32640053636FCA
:1048FE0072653A202564004C697665733A2025640A
:10490E0000466C6F6F723A2025640025322E306699
:10491E00004C6F6164696E672E2E2E0053636F72AA
:10492E0065203D20006C6576656C203D200052654B
:10493E0061647920746F20506C61793F00436F6E13
:10494E006E656374205553422E2E2E00486F7720CD
:10495E0061726520796F7521004C6F636174696FA8
:10496E006E3A20280029200053636F72653A2000AA
:10497E00204C697665733A2000204C6576656C3A5A
:10498E002000290D0A0047616D65206F7665722142
:10499E0000466C6F6F723A2000506C617965722020
:1049AE006973206B696C6C6564206279206D6F6E23
:1049BE0073746572200A00506C617965722070699B
:1049CE00636B656420757020746865206B65790A69
:1049DE0000506C61796572206D6F76656420746F1E
:1049EE00206C6576656C2000506C61796572207064
:1049FE0069636B656420757020747265617375727E
:104A0E00650A00506C61796572206D6F7665207451
:0A4A1E006F206C6576656C200000C7
:00000001FF
