:100000000C946D020C948A020C948A020C948A025D
:100010000C948A020C948A020C948A020C948A0230
:100020000C948A020C948A020C9477160C94B216E3
:100030000C948A020C948A020C948A020C948A0210
:100040000C948A020C948A020C948A020C948A0200
:100050000C94CE020C948A020C948A020C948A02AC
:100060000C948A020C948A020C948A020C948A02E0
:100070000C948A020C948A020C948A020C948A02D0
:100080000C948A020C948A020C948A020C948A02C0
:100090000C948A020C948A020C948A020C948A02B0
:1000A0000C948A020C948A020C948A020C1609168B
:1000B000061603160016FD15FA15F715F415F115B9
:1000C000EE15EB15E815E515E215DF15DC15D9156C
:1000D000D615D315D015CD15CA15C715C415C1151C
:1000E000BE15BB15B815B515B215AF15AC15A915CC
:1000F000A615A315A0159D159A159715941591157C
:100100008E158B158815851582157F157C1579152B
:100110007615731570156D156A15671564156115DB
:100120005E155B155815551552154F154C150001E8
:10013000000062011200020000740143000300008D
:10014000B7010401030904BB011402030904D1012E
:100150001603030904E9010C0001C11201803601F4
:1001600081361201000202000010C0167A0400015C
:100170000102030109024300020100C03209040028
:100180000001020201000524001001052401010103
:10019000042402060524060001070582031000401E
:1001A00009040100020A00000007050302400000E4
:1001B0000705840240000004030904140359006F7A
:1001C000007500720020004E0061006D00650000A7
:1001D00000160355005300420020005300650072D2
:1001E00000690061006C0000000C03310032003334
:1001F000003400350000006E616E00696E6600001C
:100200000000000000005F00000007000700147FEE
:10021000147F14242A7F2A12231308646236495556
:1002200022500005030000001C2241000041221C56
:100230000014083E081408083E080800503000006A
:100240000808080808006060000020100804023E4A
:100250005149453E00427F4000426151494621419B
:10026000454B311814127F1027454545393C4A4902
:10027000493001710905033649494936064949297A
:100280001E003636000000563600000814224100D9
:1002900014141414140041221408020151090632E6
:1002A0004979413E7E1111117E7F494949363E41CF
:1002B0004141227F4141221C7F494949417F09092F
:1002C00009013E4149497A7F0808087F00417F4182
:1002D000002040413F017F081422417F40404040C0
:1002E0007F020C027F7F0408107F3E4141413E7F28
:1002F000090909063E4151215E7F091929464649EF
:1003000049493101017F01013F4040403F1F2040EA
:10031000201F3F4038403F631408146307087008EB
:10032000076151494543007F414100020408102004
:100330000041417F0004020102044040404040006F
:100340000102040020545454787F4844443838440F
:10035000444420384444487F3854545418087E0993
:1003600001020C5252523E7F0804047800447D4042
:10037000002040443D007F1028440000417F4000A1
:100380007C041804787C0804047838444444387C9D
:1003900014141408081414187C7C08040408485425
:1003A000545420043F4440203C4040207C1C2040CA
:1003B000201C3C4030403C44281028440C505050F5
:1003C0003C4464544C44000836410000007F000067
:1003D00000413608001008081008784641467800A9
:1003E000407A10F35A00A0724E18090010A5D4E804
:1003F0000000E87648170000E40B54020000CA9A97
:100400003B000000E1F505000080969800000040E8
:10041000420F000000A0860100000010270000002D
:1004200000E803000000006400000000000A000073
:100430000000000100000000002C76D888DC674F27
:100440000823DFC1DFAE59E1B1B796E5E3E453C657
:100450003AE651997696E8E6C28426EB898C9B624F
:10046000ED407C6FFCEFBC9C9F40F2BAA56FA5F4F9
:1004700090055A2AF75C936B6CF9676DC11BFCE021
:10048000E40D47FEF520E6B500D0ED902E03009474
:100490003577050080841E080000204E0A00000009
:1004A000C80C333333330F986E12831141EF8D2113
:1004B00014893BE65516CFFEE6DB18D1844B381B7A
:1004C000F77C1D901DA4BBE424203284725E22813F
:1004D00000C9F124ECA1E53D270011241FBECFEF98
:1004E000DAE0DEBFCDBF14E0A0E0B1E0ECE1F9E47A
:1004F00002C005900D92AE36B107D9F717E0AEE60F
:10050000B4E001C01D92A236B107E1F70E941F14AA
:100510000C948C240C940000AF92BF92CF92DF9287
:10052000EF92FF920F931F9360917604709177047E
:10053000E0908400F0908500882777FD8095982FC3
:100540000E94FB1F20E030E040E857E40E94AF200B
:100550005B016C0100E010E0C801B7010E94F91FC7
:100560009B01AC01C601B5010E94F81E20E034E2F7
:1005700044EF5AE40E94601F0E94C81F9B01AC0117
:100580006093700430937104CB011F910F91FF9021
:10059000EF90DF90CF90BF90AF9008951F920F9291
:1005A0000FB60F9211242F933F934F935F936F9346
:1005B0007F938F939F93AF93BF93EF93FF9380911C
:1005C0007604909177040196909377048093760453
:1005D0000E948C029093710480937004CC9789F4EC
:1005E00080916E0490916F04019690936F048093B4
:1005F0006E0410927104109270041092770410929D
:100600007604FF91EF91BF91AF919F918F917F9170
:100610006F915F914F913F912F910F900FBE0F906F
:100620001F901895809170049091710408958091A5
:100630006E0490916F040895DC010D900020E9F79D
:100640001197A81BB90BBD010E94FE1408950F93CA
:100650001F932DB73EB7285030400FB6F8943EBFD9
:100660000FBE2DBFEDB7FEB7319608E714E0ADB76A
:10067000BEB712961C930E93119728E030E0338397
:10068000228320E031E035832483978386830E9490
:100690007D232DB73EB7285F3F4F0FB6F8943EBF7E
:1006A0000FBE2DBFC8010E941C031F910F9108951A
:1006B000CF92DF92EF92FF920F931F93D82EC62E08
:1006C00079018DB79EB708970FB6F8949EBF0FBEFD
:1006D0008DBFEDB7FEB731960DEE14E0ADB7BEB7E6
:1006E00012961C930E93119784E190E0938382837A
:1006F00080E091E095838483578346830E947D2325
:100700008DB79EB708960FB6F8949EBF0FBE8DBFEB
:100710008D2D6C2DA80197010E94831D1F910F91B3
:10072000FF90EF90DF90CF900895CF92DF92EF92FD
:10073000FF920F931F93D82EC62E8DB79EB70A97A0
:100740000FB6F8949EBF0FBE8DBFEDB7FEB73196C2
:100750008DEEE82E84E0F82EADB7BEB71296FC926F
:10076000EE92119784E190E09383828383E091E09D
:100770009583848326833783408751870E947D2316
:100780008DB79EB70A960FB6F8949EBF0FBE8DBF69
:100790008D2D6C2DA70198010E94831D1F910F9133
:1007A000FF90EF90DF90CF9008958EE06FE049E0EA
:1007B00051E021E030E00E94831D83E169E146E1E0
:1007C00051E021E030E00E94831D08950F931F93B4
:1007D000CF93DF938FE30E94D71D8CE06CE04FE155
:1007E00051E021E030E00E94831D0E94A31D0E9481
:1007F0002D140E9446148823E1F30E944816882392
:10080000C1F30E94A41BC0E0D0E008EC10E08CE033
:100810006CE04EE251E021E030E00E94831D88E868
:1008200093E1F8013197F1F70197D9F70E94A31DE1
:100830000E94A41B2196C330D10549F788E893E1B3
:1008400028EC30E0F9013197F1F70197D9F7DF9102
:10085000CF911F910F9108950F931F93CF93DF9323
:10086000C3E0D0E008EC10E08AE268E1AE0121E0EC
:1008700030E00E94580388E06CE04BE351E021E057
:1008800030E00E94831D0E94A31D82E09DE0F801DC
:100890003197F1F70197D9F70E94A41B81E090E00E
:1008A00090935802809357022197F1F6DF91CF91F0
:1008B0001F910F910895EF92FF920F931F93CF9383
:1008C000DF9380917504813009F05FC0C3E0D0E010
:1008D00098ECE92EF12C82E06CE04AE451E021E052
:1008E00030E00E94831D82E068E145E551E021E0AF
:1008F00030E00E94831D6091720470917304882718
:1009000077FD8095982F0E94FB1F9B01AC0188E228
:1009100068E101E010E00E94950382E060E24EE5AC
:1009200051E021E030E00E94831D609157027091F8
:100930005802882777FD8095982F0E94FB1F9B0106
:10094000AC0188E260E20E9495030E94A31D80E151
:1009500097E2F7013197F1F70197D9F70E94A41BAD
:10096000809157029091580201969093580280937B
:10097000570288EE93E0F7013197F1F70197D9F725
:100980000E94A31D219709F0A6CFDF91CF911F915F
:100990000F91FF90EF90089584E894E00E944D1E1F
:1009A00083EC94E00E944D1E85E595E00E944D1E6B
:1009B00089E994E00E944D1E08952F923F924F9234
:1009C0005F926F927F928F929F92AF92BF92CF92DF
:1009D000DF92EF92FF920F931F93DF93CF93CDB7E8
:1009E000DEB728970FB6F894DEBF0FBECDBF1092CA
:1009F00075048091010590910205A0910305B091C5
:100A000004058D839E83AF83B8876091AE04709197
:100A1000AF048091B0049091B1042D813E814F814B
:100A200058850E94F71E3B014C018091050590916D
:100A30000605A0910705B091080589839A83AB83C9
:100A4000BC836091B2047091B3048091B40490911E
:100A5000B50429813A814B815C810E94F71E7B019C
:100A60008C01C401B301A40193010E94AF205B017A
:100A70006C01C801B701A80197010E94AF209B013A
:100A8000AC01C601B5010E94F81E0E9436211B016F
:100A90002C01C401B3012DEC3CEC4CE45EE30E945C
:100AA000AF205B016C01C801B7012DEC3CEC4CE4BC
:100AB0005EE30E94AF207B018C01C601B501A2015B
:100AC00091010E94601F9B01AC016D817E818F812D
:100AD00098850E94F81E609301057093020580932B
:100AE000030590930405C801B701A20191010E947A
:100AF000601F9B01AC0169817A818B819C810E947E
:100B0000F81E609305057093060580930705909382
:100B1000080581E095E00E944D1E28960FB6F894D6
:100B2000DEBF0FBECDBFCF91DF911F910F91FF9020
:100B3000EF90DF90CF90BF90AF909F908F907F907D
:100B40006F905F904F903F902F9008956F927F929B
:100B50008F929F92AF92BF92CF92DF92EF92FF92CD
:100B60000F931F93CF93DF93CDEED4E057E6652E1E
:100B700051E0752E47E7842E41E0942E31E8A32EF4
:100B800031E0B32E2BE8C22E21E0D22EA3C0E0909C
:100B90007004F090710400916E0410916F040E9433
:100BA000A41B8DB79EB708970FB6F8949EBF0FBED3
:100BB0008DBFEDB7FEB73196ADB7BEB71296DC93D9
:100BC000CE9311977382628215830483F782E68243
:100BD0000E94AE238DB79EB708960FB6F8949EBFBD
:100BE0000FBE8DBF88E060E0AE0121E030E00E94E2
:100BF000831D00D000D000D0EDB7FEB73196ADB761
:100C0000BEB71296DC93CE93119793828282809125
:100C1000720490917304958384830E94AE238DB7F0
:100C20009EB706960FB6F8949EBF0FBE8DBF88E0A4
:100C30006AE0AE0121E030E00E94831D00D000D0C8
:100C400000D0EDB7FEB73196ADB7BEB71296DC93C4
:100C5000CE931197B382A2828091590290915A0249
:100C6000958384830E94AE238DB79EB706960FB6F8
:100C7000F8949EBF0FBE8DBF88E064E1AE0121E015
:100C800030E00E94831D00D000D000D0EDB7FEB749
:100C90003196ADB7BEB71296DC93CE931197D3823F
:100CA000C2828091570290915802958384830E945A
:100CB000AE238DB79EB706960FB6F8949EBF0FBEB3
:100CC0008DBF88E06EE1AE0121E030E00E94831D1F
:100CD0000E94A31D18995BCFDF91CF911F910F91B7
:100CE000FF90EF90DF90CF90BF90AF909F908F904C
:100CF0007F906F9008959F92AF92BF92CF92DF92B4
:100D0000EF92FF920F931F93CF93DF937C018B01A0
:100D1000FC0160817181828193810E9412210E9475
:100D2000C81F5B01F70164817581868197810E94EC
:100D300012210E94C81F6B01F7019088F8016081A1
:100D40007181828193810E9412210E94C81FEB0150
:100D5000F80164817581868197810E9412210E9429
:100D6000C81FF80140895189F70181899601280F30
:100D7000311D261737071CF420E030E00BC020E0BF
:100D800030E0C501890D911D0197C817D90714F4EA
:100D900021E030E0C40FD11DCA15DB0514F420E0BA
:100DA00030E0650F711D61507040C616D70614F013
:100DB00020E030E0C901DF91CF911F910F91FF90AA
:100DC000EF90DF90CF90BF90AF909F900895AF923B
:100DD000BF92CF92DF92EF92FF920F931F93CF9328
:100DE000DF93809157029091580205970CF4E1C16E
:100DF00080E090E0A4E0B2E48093AE049093AF046E
:100E0000A093B004B093B10480E090E0A0E6B1E418
:100E10008093B2049093B304A093B404B093B50448
:100E200069B11F9B03C00FEF1FEF05C06695062F2A
:100E300010E00170107063B1489B03C0CFEFDFEF8B
:100E400005C06695C62FD0E0C170D0708EEA94E0E0
:100E500064E874E00E947B06892B31F089B18695A5
:100E600080FF02C00FEF1FEF8EEA94E065E575E0AA
:100E70000E947B06892B21F01F9B02C001E010E03D
:100E80008EEA94E063EC74E00E947B06892B31F0DB
:100E900083B1869580FF02C0CFEFDFEF8EEA94E04A
:100EA00069E974E00E947B06892B29F0489B03C006
:100EB000C1E0D0E006C0209721F40115110509F426
:100EC00078C1809174048823B1F5BE01882777FD2D
:100ED0008095982F0E94FB1F9B01AC0160912B0510
:100EE00070912C0580912D0590912E050E94F81E81
:100EF00060932B0570932C0580932D0590932E0500
:100F0000B801882777FD8095982F0E94FB1F9B01D1
:100F1000AC0160912F057091300580913105909161
:100F200032050E94F81E60932F0570933005809360
:100F3000310590933205BE01882777FD8095982F63
:100F40000E94FB1F5B016C0160914005709141059F
:100F50008091420590914305A60195010E94F81EDB
:100F6000609340057093410580934205909343053B
:100F7000B801882777FD8095982F0E94FB1F7B0181
:100F80008C016091440570914505809146059091D2
:100F90004705A80197010E94F81E609344057093CD
:100FA0004505809346059093470560910105709132
:100FB00002058091030590910405A60195010E9408
:100FC000F81E6093010570930205809303059093CA
:100FD00004056091050570910605809107059091C3
:100FE0000805A80197010E94F81E609305057093FB
:100FF000060580930705909308056091160570918A
:1010000017058091180590911905A60195010E9478
:10101000F81E60931605709317058093180590933A
:10102000190560911A0570911B0580911C0590911E
:101030001D05A80197010E94F81E60931A05709380
:101040001B0580931C0590931D056091C30470914E
:10105000C4048091C5049091C604A60195010E9424
:10106000F81E6093C3047093C4048093C5049093E6
:10107000C6046091C7047091C8048091C90490911E
:10108000CA04A80197010E94F81E6093C7047093D8
:10109000C8048093C9049093CA0460918404709139
:1010A00085048091860490918704A60195010E9491
:1010B000F81E609384047093850480938604909353
:1010C0008704609188047091890480918A049091CA
:1010D0008B04A80197010E94F81E60938804709306
:1010E000890480938A0490938B0460919904709191
:1010F0009A0480919B0490919C04A60195010E9402
:10110000F81E6093990470939A0480939B049093C3
:101110009C0460919D0470919E0480919F04909125
:10112000A004A80197010E94F81E60939D0470938B
:101130009E0480939F049093A00460915505709144
:1011400056058091570590915805A60195010E947A
:10115000F81E60935505709356058093570590933C
:1011600058056091590570915A0580915B059091E1
:101170005C05A80197010E94F81E609359057093C1
:101180005A0580935B0590935C058BE295E00E9485
:101190004D1E80E495E00E944D1E86E195E00E9480
:1011A0004D1E81E095E00E944D1E0E94CC040E94DD
:1011B000A31DDF91CF911F910F91FF90EF90DF90D2
:1011C000CF90BF90AF9008958F929F92AF92BF92B1
:1011D000CF92DF92EF92FF920F931F93CF93DF9303
:1011E0006091AE047091AF048091B0049091B1040D
:1011F0000E9412210E94C81F4B01A090B204B0901F
:10120000B304C090B404D090B504609116057091F9
:10121000170580911805909119050E9412210E94CE
:10122000C81FEB01E0901A05F0901B0500911C050A
:1012300010911D05C40107968C179D0704F1C60186
:10124000B5010E9412210E94C81F6B01C801B7019D
:101250000E9412210E94C81FC60108968617970790
:1012600074F02696C815D90554F020E030E06D5F83
:101270007F4F6C157D052CF021E030E002C020E0AE
:1012800030E0C901DF91CF911F910F91FF90EF9056
:10129000DF90CF90BF90AF909F908F9008958F92E6
:1012A0009F92AF92BF92CF92DF92EF92FF920F93F5
:1012B0001F93CF93DF936091AE047091AF04809140
:1012C000B0049091B1040E9412210E94C81F4B01EA
:1012D000A090B204B090B304C090B404D090B50410
:1012E00060914005709141058091420590914305C0
:1012F0000E9412210E94C81FEB01E0904405F0906B
:1013000045050091460510914705C40107968C17C5
:101310009D0704F1C601B5010E9412210E94C81F59
:101320006B01C801B7010E9412210E94C81FC601AB
:1013300008968617970774F02996C815D90554F0B2
:1013400020E030E0665F7F4F6C157D052CF021E0DA
:1013500030E002C020E030E0C901DF91CF911F9161
:101360000F91FF90EF90DF90CF90BF90AF909F9044
:101370008F9008958F929F92AF92BF92CF92DF92FB
:10138000EF92FF920F931F93CF93DF936091AE0480
:101390007091AF048091B0049091B1040E94122129
:1013A0000E94C81F4B01A090B204B090B304C0903B
:1013B000B404D090B50460912B0570912C058091F8
:1013C0002D0590912E050E9412210E94C81FEB014D
:1013D000E0902F05F0903005009131051091320515
:1013E000C40107968C179D0704F1C601B5010E9440
:1013F00012210E94C81F6B01C801B7010E9412216F
:101400000E94C81FC60108968617970774F0279692
:10141000C815D90554F020E030E06E5F7F4F6C15A1
:101420007D052CF021E030E002C020E030E0C90171
:10143000DF91CF911F910F91FF90EF90DF90CF90B0
:10144000BF90AF909F908F9008958F929F92AF9290
:10145000BF92CF92DF92EF92FF920F931F93CF93A1
:10146000DF936091AE047091AF048091B0049091CD
:10147000B1040E9412210E94C81F4B01A090B20427
:10148000B090B304C090B404D090B504609101054D
:101490007091020580910305909104050E9412212C
:1014A0000E94C81FEB01E0900505F0900605009131
:1014B000070510910805C40107968C179D0704F1D4
:1014C000C601B5010E9412210E94C81F6B01C8010C
:1014D000B7010E9412210E94C81FC60108968617F4
:1014E000970774F02896C815D90554F020E030E02D
:1014F0006A5F7F4F6C157D052CF021E030E002C063
:1015000020E030E0C901DF91CF911F910F91FF9052
:10151000EF90DF90CF90BF90AF909F908F90089505
:101520008F929F92AF92BF92CF92DF92EF92FF92F3
:101530000F931F930E9453228C010E9453225C013F
:10154000B6E18B2EB5E09B2EC8016CE470E00E94E2
:10155000A421AA2797FDA095BA2FBC01CD010E9416
:10156000FB1F6B017C01C5016BE270E00E94A421AE
:10157000AA2797FDA095BA2FBC01CD010E94FB1FA1
:101580008B019C01C401B701A601A7E0EA2EF4E09B
:10159000CF2EEDE7AE2EE3E0BE2E0E94251EC40145
:1015A0000E944D1E1F910F91FF90EF90DF90CF9002
:1015B000BF90AF909F908F9008958F929F92AF921F
:1015C000BF92CF92DF92EF92FF920F931F930E94F0
:1015D00053228C010E9453225C01B0E48B2EB5E0B3
:1015E0009B2EC80169E470E00E94A421AA2797FD00
:1015F000A095BA2FBC01CD010E94FB1F6B017C019D
:10160000C50164E270E00E94A421AA2797FDA0957D
:10161000BA2FBC01CD010E94FB1F8B019C01C401AC
:10162000B701A601ABE0EA2EFAE0CF2EE7E6AE2E38
:10163000E3E0BE2E0E94251EC4010E944D1E1F9194
:101640000F91FF90EF90DF90CF90BF90AF909F9061
:101650008F9008958F929F92AF92BF92CF92DF9218
:10166000EF92FF920F931F930E9453228C010E94CE
:1016700053225C01BBE28B2EB5E09B2EC8016BE4CC
:1016800070E00E94A421AA2797FDA095BA2FBC0163
:10169000CD010E94FB1F6B017C01C5016CE270E073
:1016A0000E94A421AA2797FDA095BA2FBC01CD01C5
:1016B0000E94FB1F8B019C01C401B701A601A8E099
:1016C000EA2EF3E0CF2EE4E7AE2EE2E0BE2E0E943B
:1016D000251EC4010E944D1E1F910F91FF90EF9097
:1016E000DF90CF90BF90AF909F908F9008958F9292
:1016F0009F92AF92BF92CF92DF92EF92FF920F93A1
:101700001F930E9453228C010E9453225C01B1E07E
:101710008B2EB5E09B2EC8016AE470E00E94A421E4
:10172000AA2797FDA095BA2FBC01CD010E94FB1FEF
:101730006B017C01C50168E270E00E94A421AA2728
:1017400097FDA095BA2FBC01CD010E94FB1F8B0114
:101750009C01C401B701A601A9E0EA2EF7E0CF2E53
:10176000E6E6AE2EE2E0BE2E0E94251EC4010E94D7
:101770004D1E1F910F91FF90EF90DF90CF90BF9083
:10178000AF909F908F9008958F929F92AF92BF924B
:10179000CF92DF92EF92FF920F931F930E945322FA
:1017A0008C010E9453225C01BEEA8B2EB4E09B2E7A
:1017B000C8016AE470E00E94A421AA2797FDA095C1
:1017C000BA2FBC01CD010E94FB1F6B017C01C5013A
:1017D00067E270E00E94A421AA2797FDA095BA2F86
:1017E000BC01CD010E94FB1F8B019C01C401B7010C
:1017F000A601A8E0EA2EF9E0CF2EEDE5AE2EE2E05C
:10180000BE2E0E94251EC4010E944D1E1F910F91E5
:10181000FF90EF90DF90CF90BF90AF909F908F9010
:1018200008958F929F92AF92BF92CF92EF920F93B3
:101830001F93F1E28F2EF4E09F2E83EC94E040E0C2
:1018400050E060E071EC00E010E020E030E0E8E023
:10185000EE2EB3E5CB2E54010E94251E84E894E0C1
:1018600040E050E060E071EC8A019B01AFE8EA2EB5
:10187000F8E0CF2EE1E8AE2EE3E0BE2E0E94251E5A
:1018800089E994E040E050E06EEF72E400E010E09F
:1018900020E030E0B8E0EB2EA3E5CA2E54010E9410
:1018A000251E85E595E040E050E060E071EC00E049
:1018B00010E026EA32E4FFE8EF2EE8E0CE2E0E94A8
:1018C000251E1F910F91EF90CF90BF90AF909F90EA
:1018D0008F900895AF92BF92CF92EF920F931F9384
:1018E00086E195E040E050E060EE70E400E010E05A
:1018F00024E032E4E7E0EE2EB4E0CB2EADE7AA2EF2
:10190000A3E0BA2E0E94251E1F910F91EF90CF9059
:10191000BF90AF900895AF92BF92CF92EF920F9386
:101920001F9380E495E040E050E064E172E400E061
:1019300010E020E531E4BAE0EB2EABE0CA2EF7E68A
:10194000AF2EF3E0BF2E0E94251E1F910F91EF9046
:10195000CF90BF90AF900895AF92BF92CF92EF9289
:101960000F931F9388ED94E040E050E060E070E456
:1019700000E010E020E030E0A0E5EA2EF8E1CF2E14
:10198000E7E7AE2EE2E0BE2E0E94251E1F910F91CA
:10199000EF90CF90BF90AF900895AF92BF92CF924B
:1019A000EF920F931F938BE295E040E050E060EEE2
:1019B00070E400E010E028EC31E4F8E0EF2EE3E022
:1019C000CE2EB4E7AB2EB2E0BB2E0E94251E1F9197
:1019D0000F91EF90CF90BF90AF900895AF92BF92CC
:1019E000CF92EF920F931F9381E095E040E050E09B
:1019F0006EE872E400E010E020E132E4E9E0EE2E6F
:101A0000B7E0CB2EA6E6AA2EA2E0BA2E0E94251E93
:101A10001F910F91EF90CF90BF90AF900895AF922C
:101A2000BF92CF92EF920F931F938EEA94E040E023
:101A300050E064E472E400E010E020E132E4B8E059
:101A4000EB2EA9E0CA2EFDE5AF2EF2E0BF2E0E94DC
:101A5000251E1F910F91EF90CF90BF90AF900895EA
:101A6000AF92BF92CF92EF920F931F9380E8809333
:101A7000610081E0809361008FE30E94D71D809117
:101A80005B0290915C02019709F064C08EEA94E0D9
:101A900040E050E064E472E400E010E020E132E471
:101AA000F8E0EF2EE9E0CE2EBDE5AB2EB2E0BB2E86
:101AB0000E94251E88ED94E040E050E060E070E474
:101AC00000E010E020E030E0A0E5EA2EF8E1CF2EC3
:101AD000E7E7AE2EE2E0BE2E0E94251E80E495E0F0
:101AE00040E050E064E172E400E010E020E531E421
:101AF000BAE0EB2EABE0CA2EF7E6AF2EF3E0BF2E36
:101B00000E94251E8BE295E040E050E060EE70E41C
:101B100000E010E028EC31E4E8E0EE2EB3E0CB2E5C
:101B2000A4E7AA2EA2E0BA2E0E94251E81E095E02D
:101B300040E050E06EE872E400E010E020E132E4C2
:101B4000F9E0EF2EE7E0CE2EB6E6AB2EB2E0BB2EEC
:101B50000E94251E80915B0290915C02029709F021
:101B600064C08EEA94E040E050E064E472E400E097
:101B700010E020E132E4A8E0EA2EF9E0CF2EEDE516
:101B8000AE2EE2E0BE2E0E94251E80E495E040E0ED
:101B900050E064E172E400E010E020E531E4BAE0F6
:101BA000EB2EABE0CA2EF7E6AF2EF3E0BF2E0E947D
:101BB000251E8BE295E040E050E060EE70E400E02E
:101BC00010E028EC31E4E8E0EE2EB3E0CB2EA4E701
:101BD000AA2EA2E0BA2E0E94251E81E095E040E0E8
:101BE00050E06EE872E400E010E020E132E4F9E059
:101BF000EF2EE7E0CE2EB6E6AB2EB2E0BB2E0E9473
:101C0000251E86E195E040E050E060EE70E400E0E3
:101C100010E024E032E4A7E0EA2EF4E0CF2EEDE776
:101C2000AE2EE3E0BE2E0E94251E1092800081E0C1
:101C30008093810080936F0078940E94A31D859803
:101C40008698519827982198509820981F910F9125
:101C5000EF90CF90BF90AF90089585E991E00E94FA
:101C60001C036091AE047091AF048091B004909118
:101C7000B1040E94C81FDC01CB010E9427038CE243
:101C80000E949C146091B2047091B3048091B404DA
:101C90009091B5040E94C81FDC01CB010E9427036C
:101CA00081EA91E00E941C0384EA91E00E941C03F7
:101CB00080917204909173040E9427038CEA91E052
:101CC0000E941C038091590290915A020E9427039E
:101CD00085EB91E00E941C0380915702909158027D
:101CE0000E9427038EEB91E00E941C030895AF929F
:101CF000BF92CF92DF92EF92FF920F931F93CF93F9
:101D0000DF936091AE047091AF048091B004909124
:101D1000B1040E9412217B018C010E94C81FEB01BB
:101D2000A090B204B090B304C090B404D090B504B5
:101D300080915B0290915C02019709F083C0C6011B
:101D4000B50120E030E040EC51E40E945C1F87FDCB
:101D500003C020E030E009C08091740460E081118C
:101D600061E081E06827262F30E0B901882777FD00
:101D70008095982F0E94FB1F0E94122120E030E0E6
:101D800040E050E00E945C1F882361F080E090E01A
:101D9000A0ECB1E48093B2049093B304A093B40494
:101DA000B093B504C801B70120E030E044E152E44B
:101DB0000E945C1F1816F4F06091B2047091B30495
:101DC0008091B4049091B5040E94122120E030E08B
:101DD00040EC51E40E945C1F882364F480E090E0B2
:101DE000A0ECB1E48093B2049093B304A093B40444
:101DF000B093B504C801B70120E030E044E152E4FB
:101E00000E94AB208823F4F06091B2047091B30477
:101E10008091B4049091B5040E94122120E030E03A
:101E200040EC51E40E945C1F882364F480E090E061
:101E3000A0ECB1E48093B2049093B304A093B404F3
:101E4000B093B504CC34D10560F080E090E0A0E020
:101E5000B0E08093B6049093B704A093B804B09315
:101E6000B904C601B5010E9412210E94C81F673241
:101E7000710560F080E090E0A0E0B0E08093BA04EB
:101E80009093BB04A093BC04B093BD041C161D0624
:101E9000C4F080E090E0A0E8BFE38093AE049093AC
:101EA000AF04A093B004B093B10480E090E0A0E050
:101EB000B0E08093B6049093B704A093B804B093B5
:101EC000B9046091AE047091AF048091B004909118
:101ED000B10420E030E040E051E40E94F81E20E030
:101EE00030E046EA52E40E94AB208823C4F080E050
:101EF00090E0A6E9B2E48093AE049093AF04A0937F
:101F0000B004B093B10480E090E0A0E0B0E0809332
:101F1000B6049093B704A093B804B093B904609149
:101F2000B2047091B3048091B4049091B50420E0A0
:101F300030E040E85FE30E945C1F8823C4F480E047
:101F400090E0A0E8BFE38093B2049093B304A09321
:101F5000B404B093B50480E090E0A0E0B0E08093DA
:101F6000BA049093BB04A093BC04B093BD046091E9
:101F7000B2047091B3048091B4049091B50420E050
:101F800030E040E151E40E94F81E20E030E04CE3F4
:101F900052E40E94AB208823C4F080E090E0A8E1E6
:101FA000B2E48093B2049093B304A093B404B093CA
:101FB000B50480E090E0A0E0B0E08093BA04909394
:101FC000BB04A093BC04B093BD0489B1869580FF87
:101FD00022C080E090E0A0E0B0E08093B60490934F
:101FE000B704A093B804B093B9046091B20470919F
:101FF000B3048091B4049091B50420E030E040E84F
:102000005FE30E94F71E6093B2047093B304809361
:10201000B4049093B5041F9B22C080E090E0A0E040
:10202000B0E08093B6049093B704A093B804B09343
:10203000B9046091B2047091B3048091B40490919A
:10204000B50420E030E040E85FE30E94F81E6093B2
:10205000B2047093B3048093B4049093B50483B135
:10206000869580FF16C06091AE047091AF04809198
:10207000B0049091B10420E030E040E85FE30E94BA
:10208000F71E6093AE047093AF048093B0049093F6
:10209000B104489B16C06091AE047091AF0480916A
:1020A000B0049091B10420E030E040E85FE30E948A
:1020B000F81E6093AE047093AF048093B0049093C5
:1020C000B1040E946E14882389F10E94491481365C
:1020D000910529F480E090E0A0E8BFEB07C08436CA
:1020E000910569F480E090E0A0E8BFE38093AE043E
:1020F0009093AF04A093B004B093B10417C083379A
:10210000910529F480E090E0A0E8BFE307C087379D
:10211000910561F480E090E0A0E8BFEB8093B20409
:102120009093B304A093B404B093B5040E942D0E11
:10213000DF91CF911F910F91FF90EF90DF90CF90A3
:10214000BF90AF9008950F931F9380E060E043E548
:1021500020E001E010E00E94DF1B80E06FE244E538
:102160002FE20E94DF1B80E060E040E02FE20E944F
:10217000DF1B83E560E043E52FE20E94DF1B1F9138
:102180000F910895EF92FF920F931F930E94770E85
:102190008091590290915A02892B09F0C4C10E9482
:1021A000081E0E94A41B84E16AE042EC51E021E099
:1021B00030E00E94831D84E164E144EA51E021E0C3
:1021C00030E00E94831D409172045091730482E3B9
:1021D00064E121E030E00E94580384E16EE14DECBF
:1021E00051E021E030E00E94831D40915702509160
:1021F000580282E36EE121E030E00E9458030E9421
:10220000A31D8FB182958695877080FD07C08FB121
:10221000829586958695837080FF81C10E94A41B5C
:102220008FEF9FEF909358028093570283E090E0E6
:1022300090935A02809359020E94A3100E94D503E2
:102240000E94A31D8091570290915802019690938D
:10225000580280935702892B89F40E94A41B8FB1E6
:1022600082958695877080FD07C08FB1829586958F
:102270008695837080FF02C00E942C0480915702D3
:1022800090915802019789F50E94A3108EEA94E07C
:102290000E944D1E88ED94E00E944D1E81E095E065
:1022A0000E944D1E80E495E00E944D1E8BE295E059
:1022B0000E944D1E0E94DD040E94A31D0E94A41BCB
:1022C0000E94250A892B89F00E94300D85ED91E04E
:1022D0000E941C038091590290915A020197909399
:1022E0005A0280935902109274040E94BA09892BF1
:1022F00039F081E08093740483EF91E00E941C0325
:10230000809174048130F1F56091AE047091AF0456
:102310008091B0049091B10420E030E040E051E4BD
:102320000E94F71E60932B0570932C0580932D055A
:1023300090932E058091B2049091B304A091B404BF
:10234000B091B50480932F0590933005A09331058B
:10235000B09332050E94A3108BE295E00E944D1EBF
:102360008EEA94E00E944D1E88ED94E00E944D1E7E
:1023700081E095E00E944D1E80E495E00E944D1E94
:102380000E94A31D0E944F09892B09F445C010919A
:102390007404113009F040C0809175048823E1F580
:1023A000109274040E94A41B109375040E945B0495
:1023B0008DE092E00E941C03809157029091580298
:1023C0000E94270384E292E00E941C030E94A41B47
:1023D00080915702909158020297F4F08DE092E0BC
:1023E0000E941C0380915702909158020E9427037B
:1023F000109274040E94C40B0E94900A0E94110C57
:102400000E94DD0A0E942A0B0E94770B82E090E076
:1024100090935C0280935B020E94250A892B89F0CD
:102420000E94300D85ED91E00E941C0380915902BD
:1024300090915A02019790935A02809359021092F8
:102440007404809157029091580202970CF467C06F
:1024500082E090E090935C0280935B020E94A41B58
:10246000109275040E94A31080E495E00E944D1E16
:102470008BE295E00E944D1E0E94CC048EEA94E00F
:102480000E944D1E0E94E70686E195E00E944D1EC7
:102490000F2EF0E0EF2EF0E0FF2EF8EC0F2FF2EC15
:1024A0001F2FF02DE092D804F092D9040093DA04A3
:1024B0001093DB0480E090E0A7E4B3EC8093DC04AD
:1024C0009093DD04A093DE04B093DF040E94DD044A
:1024D0000E94E408892BE9F0E0921605F0921705B6
:1024E0000093180510931905E0921A05F0921B0548
:1024F00000931C0510931D05809172049091730444
:102500000A96909373048093720486E292E00E948C
:102510001C0381E095E00E944D1E0E94A31D0E94B5
:10252000A31D0E94A31D8091590290915A02892BEC
:1025300009F480C180915702909158028F5F9F4F9C
:1025400079F40E94A3100E94D5030E94A31D8091DC
:102550005702909158020196909358028093570227
:102560008091570290915802892B89F40E94A41BF4
:102570008FB182958695877080FD07C08FB1829557
:1025800086958695837080FF02C00E942C048091FE
:10259000570290915802019789F50E94A3108EEA84
:1025A00094E00E944D1E88ED94E00E944D1E81E053
:1025B00095E00E944D1E80E495E00E944D1E8BE246
:1025C00095E00E944D1E0E94DD040E94A31D0E9402
:1025D000A41B0E94250A892B89F00E94300D85EDED
:1025E00091E00E941C038091590290915A02019738
:1025F00090935A0280935902109274040E94BA096F
:10260000892B39F081E08093740483EF91E00E947C
:102610001C03809174048130F1F56091AE047091D7
:10262000AF048091B0049091B10420E030E040E02C
:1026300051E40E94F71E60932B0570932C05809344
:102640002D0590932E058091B2049091B304A09132
:10265000B404B091B50480932F0590933005A093F6
:102660003105B09332050E94A3108BE295E00E94E1
:102670004D1E8EEA94E00E944D1E88ED94E00E946B
:102680004D1E81E095E00E944D1E80E495E00E9481
:102690004D1E0E94A31D0E944F09892B09F445C0BD
:1026A00010917404113009F040C0809175048823A2
:1026B000E1F5109274040E94A41B109375040E940B
:1026C0005B0481E492E00E941C0380915702909188
:1026D00058020E94270384E292E00E941C030E9499
:1026E000A41B80915702909158020297F4F081E464
:1026F00092E00E941C0380915702909158020E9420
:102700002703109274040E94C40B0E94900A0E9436
:10271000110C0E94DD0A0E942A0B0E94770B82E0B6
:1027200090E090935C0280935B020E94250A892BC3
:1027300089F00E94300D85ED91E00E941C0380918C
:10274000590290915A02019790935A02809359022C
:1027500010927404809157029091580202970CF4E1
:1027600067C082E090E090935C0280935B020E94DD
:10277000A41B109275040E94A31080E495E00E94AF
:102780004D1E8BE295E00E944D1E0E94CC048EEA05
:1027900094E00E944D1E0E94E70686E195E00E94AB
:1027A0004D1E0F2EF0E0EF2EF0E0FF2EF8EC0F2F75
:1027B000F2EC1F2FF02DE092D804F092D904009390
:1027C000DA041093DB0480E090E0A7E4B3EC80939C
:1027D000DC049093DD04A093DE04B093DF040E9438
:1027E000DD040E94E408892BE9F0E0921605F092DE
:1027F00017050093180510931905E0921A05F09239
:102800001B0500931C0510931D0580917204909187
:1028100073040A96909373048093720486E292E0A4
:102820000E941C0381E095E00E944D1E0E94A31DA2
:102830000E94A6051F910F91FF90EF900895CF93EE
:10284000DF930E94300D0E94E603C0E2DEE40E94A6
:10285000C210CE010197F1F7FACF81E08093D70043
:1028600080EA8093D80082E189BD09B400FEFDCFE3
:1028700080E98093D8001092E000109280041092BA
:1028800081048CE08093E200789408958091800424
:1028900008952FB7F89480918004882369F083E02D
:1028A0008093E9009BE68091E80085FD09C082FFE6
:1028B00003C09093E800F7CF2FBF2FEF3FEF0CC07E
:1028C0009091F1008091E80085FD03C08BE6809334
:1028D000E8002FBF292F30E0C90108952FB7F894E1
:1028E00080918004882311F490E010C083E08093ED
:1028F000E9009091F200992349F48091E80082FF69
:1029000005C085FD03C08BE68093E8002FBF892FAB
:10291000089580918004882371F09FB7F89483E034
:102920008093E9002BE602C02093E8008091E80044
:1029300085FDFACF9FBF0895482F8091800488239A
:10294000D9F12FB7F89484E08093E9008091830453
:10295000882341F08091E80085FD02C02FBF12C09E
:10296000109283049091E400975E34E08091E80037
:1029700085FD13C02FBF8091E400891729F481E001
:10298000809383048FEF0895809180048823A1F0C1
:102990002FB7F8943093E900E9CF4093F10080918C
:1029A000E80085FD03C08AE38093E80085E080931A
:1029B00082042FBF80E008958FEF0895282F809123
:1029C0008004882351F09FB7F89484E08093E90055
:1029D0008091E80085FD03C09FBF8FEF089520938D
:1029E000F1008091E80085FD03C08AE38093E80050
:1029F00085E0809382049FBF80E00895CF93DF93AA
:102A0000EC0180918004882309F41CC13FB7F8943D
:102A100084E08093E90080918304882309F408C14D
:102A20008091E80085FD02C03FBF0CC11092830475
:102A3000FFC09091E400975E8091E80085FD13C08F
:102A40003FBF8091E400891721F481E080938304E3
:102A5000F9C080918004882309F4F4C03FB7F8944A
:102A6000B093E900E9CF8091F200242F281B822F38
:102A700090E06817790708F4262F822F90E08134C0
:102A8000910508F0C6C08A5A9F4FFC01EE0FFF1F48
:102A90000590F491E02D099489918093F10089913A
:102AA0008093F10089918093F10089918093F100E6
:102AB00089918093F10089918093F10089918093AD
:102AC000F10089918093F10089918093F1008991BF
:102AD0008093F10089918093F10089918093F100B6
:102AE00089918093F10089918093F100899180937D
:102AF000F10089918093F10089918093F10089918F
:102B00008093F10089918093F10089918093F10085
:102B100089918093F10089918093F100899180934C
:102B2000F10089918093F10089918093F10089915E
:102B30008093F10089918093F10089918093F10055
:102B400089918093F10089918093F100899180931C
:102B5000F10089918093F10089918093F10089912E
:102B60008093F10089918093F10089918093F10025
:102B700089918093F10089918093F10089918093EC
:102B8000F10089918093F10089918093F1008991FE
:102B90008093F10089918093F10089918093F100F5
:102BA00089918093F10089918093F10089918093BC
:102BB000F10089918093F10089918093F1008991CE
:102BC0008093F10089918093F10089918093F100C5
:102BD00089918093F10089918093F100899180938C
:102BE000F10089918093F10089918093F10089919E
:102BF0008093F10089918093F10089918093F10095
:102C000089918093F10089918093F100899180935B
:102C1000F10089918093F1008091E80085FD02C068
:102C20005093E800621B7109A09382043FBF04C067
:102C3000B4E040E45AE3A5E06115710509F0F9CE6E
:102C400080E001C08FEFDF91CF9108959FB7F89496
:102C500080918204882341F084E08093E9008AE334
:102C60008093E800109282049FBF089560916304EE
:102C70007091640480916504909166040895809138
:102C80006704089580916804089580916904089507
:102C9000809181040895282F9FB7F8948091800433
:102CA000882339F082E08093E9008091E80085FD77
:102CB00003C09FBF8FEF089581EA8093F10080E207
:102CC0008093F1001092F1001092F1001092F10047
:102CD0001092F10081E08093F1001092F1002093B6
:102CE000F1008AE38093E8009FBF80E008951F927F
:102CF0000F920FB60F9211248F939F938091E10052
:102D00001092E100982F83FF11C01092E90081E03A
:102D10008093EB001092EC0082E18093ED0088E05C
:102D20008093F000109280041092810492FF13C0EF
:102D300080918004882379F080918204882359F05F
:102D4000815080938204882331F484E08093E900E9
:102D50008AE38093E8009F918F910F900FBE0F90B0
:102D60001F9018951F920F920FB60F9211240F9378
:102D70001F932F933F934F935F936F937F938F9303
:102D80009F93AF93BF93EF93FF931092E9008091CD
:102D9000E80083FF3CC14091F1003091F100809147
:102DA000F100682F70E02091F100922F80E0682BF5
:102DB000792B8091F100A82FB0E02091F100922FA3
:102DC00080E0A82BB92B1091F1000091F10082EF67
:102DD0008093E800363009F05AC025E331E0A901BC
:102DE00045505040F9013797859194918617970780
:102DF00001F5FA01859194918A179B07D1F49A0104
:102E00002E5F3F4FF901659174912E5F3F4FF9019D
:102E10004491212F30E0902F80E0282B392B2F3F39
:102E2000310519F010F02FEF30E0241758F4422F3D
:102E300009C0295F3F4F495F5F4FF1E02F353F07E2
:102E400089F6E5C05EEF8091E800282F30E0C901E7
:102E500085709070892BB9F322FDDCC0342F41318D
:102E600008F030E1232FCB0106C0FC010196E4916C
:102E7000E093F10021502223C1F7630F711D431B22
:102E80005093E8004423F9F63031E9F2C3C03530FD
:102E900061F48EEF8093E8008091E80080FFFCCF22
:102EA000862F80688093E300B5C0393051F5442304
:102EB00009F0ADC0609380041092810410928204E6
:102EC0008EEF8093E80088E591E021E02093E9000F
:102ED000FC010196E491E093EB00EE2369F0AC0174
:102EE0004F5F5F4FFC0184918093EC00CA01019613
:102EF000FA0134913093ED002F5F253039F78EE1E0
:102F000081C0383061F4403809F081C08091E80018
:102F100080FFFCCF809180048093F10050C031325B
:102F200089F4413A09F073C08091E80080FFFCCF3A
:102F3000E3E6F4E081918093F10084E0EA36F8075B
:102F4000C9F73DC03032A1F4413209F060C0809130
:102F5000E80082FFFCCFE3E6F4E08091F10081938A
:102F600084E0EA36F807C9F78BEF8093E80027C0C2
:102F7000323251F4413209F04AC0609381048091A9
:102F8000E80080FFFCCF1BC03323E9F48091E80008
:102F900080FFFCCF423811F080E00DC0A093E90023
:102FA0008091EB0090E025E0969587952A95E1F7D2
:102FB00081701092E9008093F1001092F1008EEF81
:102FC0008093E80027C0313011F0333001F54230F2
:102FD000F1F4672BE1F42A2F2F77822F8150843070
:102FE000B0F48EEF8093E8002093E900333079F05D
:102FF00089E18093EB0081E090E002C0880F991F87
:103000002A95E2F78093EA001092EA0003C081E279
:103010008093EB00FF91EF91BF91AF919F918F91C2
:103020007F916F915F914F913F912F911F910F91E0
:103030000F900FBE0F901F901895A1E1B0E0E3E252
:10304000F8E10C94B7213C017F876E876A01FC018F
:1030500017821682838181FD03C06FEF7FEF6FC3FC
:103060009E012F5F3F4F398B288BF3012381EE8523
:10307000FF8523FD859123FF8191FF87EE878823BC
:1030800009F45AC3853251F4EE85FF8523FD8591FD
:1030900023FF8191FF87EE87853229F490E0B30109
:1030A0000E945123E2CF982F10E0882499241032F7
:1030B000B0F49B3269F09C3228F4903251F0933294
:1030C00071F40BC09D3239F0903349F4116028C07F
:1030D0001260146025C0186023C0106121C017FD64
:1030E0002AC0892F80538A3078F416FF06C0FAE090
:1030F0009F9E902C1124980E13C03AE0839E802C42
:103100001124880E10620CC09E3221F416FD14C3E7
:10311000106406C09C3611F4106802C0983659F449
:10312000EE85FF8523FD959123FF9191FF87EE8723
:10313000992309F0BCCF892F8554833020F4812F47
:103140008061905E07C0892F8556833008F09FC14B
:10315000812F8F7E86FD02C076E0972E6FE3F62EDC
:10316000F822953619F4F0E4FF2A07C0963619F4D0
:1031700020E8F22A02C091109A94F7FE0AC03BE3BD
:10318000391518F45CE3B52E02C0B92CB39427E0CE
:1031900009C047E0491520F4BB2447E0942EF7CF3F
:1031A000292DBB24C60104969D878C87F60160817A
:1031B000718182819381AE014F5F5F4F0B2D0E9421
:1031C00063226C010981202E332400FF04C003FD1B
:1031D00002C01DE209C0F1FE02C01BE205C0F2FC04
:1031E00002C010E001C010E2C1018C709070892B08
:1031F000B9F1112311F483E001C084E0881510F0C7
:1032000088240AC0881AF3FC07C080E290E0B3016A
:103210000E9451238A94C9F7112329F0812F90E04D
:10322000B3010E94512323FE03C007EF11E00EC03B
:103230000BEF11E00BC0E114F10409F0805290E0B3
:10324000B3010E9451230F5F1F4F05C0EF2CFF24D5
:10325000F0E1EF22FF24F8018491882361F714C183
:10326000F7FE12C0BC0C24FE04C08A81813309F42D
:10327000BA941B141CF0BB24B3942DC0F8E0FB15CA
:1032800050F538E0B32E27C0F6FC25C0892D90E01C
:103290008C159D054CF02CEFC2162FEFD20624F0B2
:1032A00030E8F32A01C09A94992049F0E2E0F0E076
:1032B000EC0FFD1FE90DF11D80818033A1F3F7FEB6
:1032C0000AC0B92CB394892D90E0C816D90614F021
:1032D000992401C09C18F7FC03C025E030E009C028
:1032E0001C141D041CF021E030E003C096012F5F88
:1032F0003F4F112311F02F5F3F4F992029F0892D67
:1033000090E00196280F391F882D90E02817390783
:1033100014F0882401C0821A4F2C5524C2018970F0
:103320009070892B39F008C080E290E0B3010E94D0
:1033300051238A948820C1F7112329F0812F90E02E
:10334000B3010E94512343FE07C008C080E390E010
:10335000B3010E9451238A948820C1F7F7FE46C02A
:103360008601D7FE02C000E010E076010894E11C5F
:10337000F11CE01AF10A41E050E04C0F5D1FE40E31
:10338000F51E26014B185108892D90E0AA24BB2474
:10339000A81AB90A5FEF0F3F150729F48EE290E0F3
:1033A000B3010E945123C016D10634F040165106D5
:1033B0001CF4F701808101C080E3015010400894A3
:1033C000E11CF11C0A151B052CF090E0B3010E94D2
:1033D0005123E0CF0C151D0539F49A81963318F46A
:1033E000953311F424FE81E390E04BC08A81813350
:1033F00009F00F7E90E0B3010E9451239920A1F0C3
:103400008EE290E0B3010E94512312E0E1E0F0E08F
:10341000EC0FFD1FE10FF11D1F5F808190E0B301F4
:103420000E9451239A9491F744FC03C085E690E0F2
:1034300002C085E490E0B3010E945123D7FC05C08F
:10344000C114D10441F404FF06C0D094C194D10842
:10345000D3948DE201C08BE290E0B3010E9451232E
:1034600080E305C08F5F26EF3FEFC20ED31E3AE028
:10347000C316D104BCF790E0B3010E945123C601EA
:10348000C096B3010E945123CC84DD8452C193368F
:1034900031F0933799F0933509F059C023C0F60104
:1034A000808189835E010894A11CB11C22E030E078
:1034B000C20ED31E21E0E22EF12C12C0F601A08034
:1034C000B18016FD03C06FEF7FEF02C0692D70E081
:1034D00022E030E0C20ED31EC5010E9446237C01CB
:1034E0001F7713C0F601A080B18016FD03C06FEFF7
:1034F0007FEF02C0692D70E022E030E0C20ED31EE3
:10350000C5010E943B237C01106813FF07C01BC04C
:1035100080E290E0B3010E9451238A94882D90E0CC
:10352000E816F906A8F30FC0F50117FD859117FFFE
:1035300081915F0190E0B3010E94512381108A9430
:103540000894E108F108E114F10471F7F2C094362F
:1035500011F0993689F517FF08C0F60120813181F5
:103560004281538184E090E00AC0F601808191811C
:103570009C01442737FD4095542F82E090E0C80E0F
:10358000D91E9FE6F92EF12257FF09C050954095AC
:10359000309521953F4F4F4F5F4F90E8F92ACA0170
:1035A000B901AE014F5F5F4F2AE030E00E94D223A5
:1035B000E82EE889EE1A41C0953721F41F7E2AE0F3
:1035C00030E01CC0197F9F3661F0903720F49835A9
:1035D00009F0B2C00FC0903739F0983709F0ACC08D
:1035E00004C028E030E00AC0106114FD146020E13E
:1035F00030E004C014FD166020E132E017FF08C07F
:10360000F601608171818281938144E050E008C0BD
:10361000F60180819181BC0180E090E042E050E0C1
:10362000C40ED51EAE014F5F5F4F0E94D223E82E1D
:103630005889E51A8FE7F82EF122F6FE0BC08EEFBF
:10364000F822E91438F4F4FE07C0F2FC05C09FEE3E
:10365000F92202C01E2D01C0192DF4FE0DC0FE017D
:10366000EE0DF11D8081803319F4E9EEFE2208C0D1
:103670001F5FF2FE05C003C08F2D867809F01F5F23
:103680000F2DF3FC14C0F0FE0FC0181510F09E2C87
:103690000BC09E2C980C911A182D06C080E290E069
:1036A000B3010E9451231F5F1815C0F304C0181501
:1036B00010F4811A01C0882404FF0FC080E390E059
:1036C000B3010E94512302FF1DC001FD03C088E722
:1036D00090E00EC088E590E00BC0802F867891F0D6
:1036E00001FF02C08BE201C080E2F7FC8DE290E0B6
:1036F000B3010E94512306C080E390E0B3010E9411
:1037000051239A94E914C0F3EA94E1E0F0E0EC0F5D
:10371000FD1FEE0DF11D808190E0B3010E94512349
:10372000EE2091F706C080E290E0B3010E945123A1
:103730008A948820C1F799CCF30166817781CB0107
:103740006196E2E10C94D321EAE6F5E0119287E07C
:10375000E236F807D9F70895843580F5603370F5BF
:10376000262F269526952695677090E0442399F09C
:10377000E4E52E9FF0011124E80FF91FE659FA4FF6
:1037800081E090E002C0880F991F6A95E2F72081DE
:10379000282B20830895E4E52E9FF0011124E80FE3
:1037A000F91FE659FA4F81E090E002C0880F991F97
:1037B0006A95E2F7809520812823208308952F922F
:1037C0003F924F925F926F927F928F929F92AF92B1
:1037D000BF92CF92DF92EF92FF920F931F93DF93EE
:1037E000CF93CDB7DEB72E970FB6F894DEBF0FBEDE
:1037F000CDBFE82ED62E142FF22E0C878417F9F4A5
:10380000862E9924A22EBB240EC08E2D682D4C85A9
:103810000E94AC1BDF1420F40894811C911C03C08F
:10382000089481089108DF1428F4A814B9040CF452
:10383000FCC0EBCF8A149B040CF4F7C0E6CF6217F0
:10384000F9F4882E9924A42EBB240EC0882D6D2D4A
:103850004C850E94AC1BE11620F40894811C911C3D
:1038600003C0089481089108E11628F4A814B9044B
:103870000CF4DBC0EBCF8A149B040CF4D6C0E6CF6B
:10388000481720F41E2DE42EF62ED22E812F90E024
:103890009A838983AE2CBB24BC016A197B098827D3
:1038A00077FD8095982F0E94FB1F6F83788789870B
:1038B0009A872F2C33248D2C9924B101681979090A
:1038C000882777FD8095982F0E94FB1F6B837C8350
:1038D0008D839E832F81388549855A850E94601F7C
:1038E0002B013C0120E030E040E050E00E94AB20A2
:1038F00087FF04C077FA709477F870940F2EF0E089
:10390000CF2EF0E0DF2EF0E0EF2EF0E0FF2EF02DD6
:1039100074C0AB868A2D682D4C850E94AC1BC701F4
:10392000B601A30192010E94F81E35C08B85682D57
:103930004C850E94AC1B1E861D866B817C818D810F
:103940009E8120E030E040E050E00E94AB2018165D
:1039500024F4E1E0F0E0FE87ED8700E010E06B8109
:103960007C818D819E8120E030E040E050E00E942B
:103970005C1F882314F401E010E08D859E85801B78
:10398000910B880E991EC701B60120E030E040E897
:103990005FE30E94F71E6B017C0120E030E040E015
:1039A0005FE30E94AB208823ACF06B817C818D812A
:1039B0009E8120E030E040E050E00E94AB201816ED
:1039C0002CF4281439040CF0B1CF04C082149304F1
:1039D0000CF0ACCF6F81788589859A8520E030E046
:1039E00040E050E00E94AB20181624F40894A11C7B
:1039F000B11C03C00894A108B1086F81788589853E
:103A00009A8520E030E040E050E00E94AB2018169C
:103A100034F4E981FA81EA15FB053CF07ACF89811B
:103A20009A81A816B9060CF074CF2E960FB6F894AA
:103A3000DEBF0FBECDBFCF91DF911F910F91FF90E1
:103A4000EF90DF90CF90BF90AF909F908F907F903E
:103A50006F905F904F903F902F9008957F928F923C
:103A60009F92AF92BF92CF92DF92EF92FF920F930D
:103A70001F93CF93DF93D82E762EC22E85E0489FDA
:103A8000A00111248A01015A1E4F91E0892E912C28
:103A900084E6A82E81E0B82EA40EB51EF80184910C
:103AA000CC2009F48095C0E0D0E0E82EFF24672DFB
:103AB0006C0FA4010C2E02C0440F551F0A94E2F7AC
:103AC0004E215F210C2E02C0559547950A94E2F7CE
:103AD0008D2D0E94AC1B2196C830D10541F70F5F98
:103AE0001F4FD3940A151B05C9F6DF91CF911F9183
:103AF0000F91FF90EF90DF90CF90BF90AF909F908D
:103B00008F907F900895EF92FF920F931F93CF9322
:103B1000DF93E62EEA01F22E082F10E007C0802F77
:103B20006E2D2F2D0E942E1D0B5F1F5FFE01E10FDA
:103B3000F11D4081442399F7DF91CF911F910F919F
:103B4000FF90EF900895CF93DF9380E060E00E94B4
:103B5000181ECAE6D5E081E069910E94B61D87E093
:103B6000C236D807C1F7DF91CF91089595B18295FC
:103B7000880F807E9F7D982B95B95F9827E030E075
:103B800070E08F98CB01022E02C0959587950A941C
:103B9000E2F780FF02C02E9A01C02E988F9A215022
:103BA00030408FEF2F3F380761F75F9A08951F93DA
:103BB000182F579A249A259A269A879A2C985F9AB2
:103BC0002C9A80E061E20E94B61D106880E0612FAF
:103BD0000E94B61D80E064E00E94B61D80E063E1B3
:103BE0000E94B61D80E06CE00E94B61D80E060E29D
:103BF0000E94B61D80E06CE00E94B61D80E060E48B
:103C00000E94B61D80E060E80E94B61D1F910895D5
:103C1000CF93DF93C0E0D0E081E060E00E94B61D6A
:103C2000219681E0C83FD807B9F7DF91CF91089579
:103C30001F93182F606480E00E94B61D106880E01A
:103C4000612F0E94B61D1F910895AF92BF92CF922F
:103C5000EF920F931F93FC01408351836283738320
:103C60000483158326833783E08AC18AB48AA38AB2
:103C700081E0828B80E090E0A0E0B0E080879187D7
:103C8000A287B38784879587A687B7871F910F91EF
:103C9000EF90CF90BF90AF9008952F923F925F9298
:103CA0006F927F928F929F92AF92BF92CF92DF924C
:103CB000EF92FF920F931F93CF93DF938C01DC0160
:103CC00052968C915297882309F47FC06D917D9113
:103CD0008D919C910E9412210E94C81F3B01F80106
:103CE0002481358146815781643571050CF06DC0A2
:103CF000D80150968C91C82FD0E0CE01860D971D2B
:103D0000181619060CF061C0CA01B9010E941221EF
:103D10000E94C81F4B01603371050CF056C0F801BA
:103D200081899401280F311D121613060CF04DC025
:103D300057E0A52EB12CAC0EBD1E43E0B594A79460
:103D40004A95E1F7EE24FF24CC24DD2437E0232E2E
:103D5000312C30C0CE0123E0959587952A95E1F767
:103D6000D8015396ED91FC915497EC0DFD1DE80F91
:103D7000F91F408150E0CE0187709070F101E81B7F
:103D8000F90B02C055954795EA95E2F741709E01FF
:103D9000260D822F652D0E94AC1B2196D8015096CE
:103DA0008C9190E0C817D907ACF20894E11CF11C83
:103DB000CA0CDB1CF801818990E0E816F9062CF4A6
:103DC000C0E0D0E05E2C580CE9CFDF91CF911F917D
:103DD0000F91FF90EF90DF90CF90BF90AF909F90AA
:103DE0008F907F906F905F903F902F9008955058E4
:103DF000BB27AA270ED075C166D130F06BD120F059
:103E000031F49F3F11F41EF45BC10EF4E095E7FB23
:103E100051C1E92F77D180F3BA176207730784077E
:103E2000950718F071F49EF58FC10EF4E0950B2EF6
:103E3000BA2FA02D0B01B90190010C01CA01A001FC
:103E40001124FF27591B99F0593F50F4503E68F157
:103E50001A16F040A22F232F342F4427585FF3CF98
:103E6000469537952795A795F0405395C9F77EF469
:103E70001F16BA0B620B730B840BBAF09150A1F0B2
:103E8000FF0FBB1F661F771F881FC2F70EC0BA0F38
:103E9000621F731F841F48F4879577956795B795C0
:103EA000F7959E3F08F0B3CF9395880F08F09927B8
:103EB000EE0F979587950895D9D008F481E008957D
:103EC0000CD00FC107D140F0FED030F021F45F3F9D
:103ED00019F0F0C0511139C1F3C014D198F39923EE
:103EE000C9F35523B1F3951B550BBB27AA276217BE
:103EF0007307840738F09F5F5F4F220F331F441F03
:103F0000AA1FA9F333D00E2E3AF0E0E830D091503A
:103F10005040E695001CCAF729D0FE2F27D0660F27
:103F2000771F881FBB1F261737074807AB07B0E866
:103F300009F0BB0B802DBF01FF2793585F4F2AF07C
:103F40009E3F510568F0B6C000C15F3FECF3983E5C
:103F5000DCF3869577956795B795F7959F5FC9F7D9
:103F6000880F911D9695879597F90895E1E0660F62
:103F7000771F881FBB1F621773078407BA0720F0DB
:103F8000621B730B840BBA0BEE1F88F7E095089544
:103F900004D06894B111D9C00895BCD088F09F575F
:103FA00090F0B92F9927B751A0F0D1F0660F771F85
:103FB000881F991F1AF0BA95C9F712C0B13081F065
:103FC000C3D0B1E00895C0C0672F782F8827B85FAD
:103FD00039F0B93FCCF3869577956795B395D9F7C6
:103FE0003EF490958095709561957F4F8F4F9F4FD0
:103FF0000895E89409C097FB3EF4909580957095DC
:1040000061957F4F8F4F9F4F9923A9F0F92F96E924
:10401000BB279395F695879577956795B795F11199
:10402000F8CFFAF4BB0F11F460FF1BC06F5F7F4F36
:104030008F4F9F4F16C0882311F096E911C0772348
:1040400021F09EE8872F762F05C0662371F096E851
:10405000862F70E060E02AF09A95660F771F881F20
:10406000DAF7880F9695879597F90895990F0008C4
:10407000550FAA0BE0E8FEEF16161706E807F9073A
:10408000C0F012161306E407F50798F0621B730BD5
:10409000840B950B39F40A2661F0232B242B252B56
:1040A00021F408950A2609F4A140A6958FEF811DF9
:1040B000811D089597F99F6780E870E060E008959A
:1040C0009FEF80EC089500240A9416161706180630
:1040D0000906089500240A9412161306140605060C
:1040E0000895092E0394000C11F4882352F0BB0F9D
:1040F00040F4BF2B11F460FF04C06F5F7F4F8F4F00
:104100009F4F089557FD9058440F551F59F05F3F3A
:1041100071F04795880F97FB991F61F09F3F79F0E9
:1041200087950895121613061406551FF2CF46956B
:10413000F1DF08C0161617061806991FF1CF8695ED
:104140007105610508940895E894BB2766277727D1
:10415000CB0197F908958ADF08F48FEF08950BD00B
:10416000C0CFB1DF28F0B6DF18F0952309F0A2CF59
:10417000A7CF1124EACFC6DFA0F3959FD1F3950F07
:1041800050E0551F629FF001729FBB27F00DB11DDB
:10419000639FAA27F00DB11DAA1F649F6627B00D6B
:1041A000A11D661F829F2227B00DA11D621F739F54
:1041B000B00DA11D621F839FA00D611D221F749F62
:1041C0003327A00D611D231F849F600D211D822FA9
:1041D000762F6A2F11249F5750408AF0E1F08823F0
:1041E0004AF0EE0FFF1FBB1F661F771F881F9150FD
:1041F0005040A9F79E3F510570F05CCFA6CF5F3FBE
:10420000ECF3983EDCF3869577956795B795F7952F
:10421000E7959F5FC1F7FE2B880F911D96958795B7
:1042200097F9089577DFE0F09E37D8F09639B8F423
:104230009E3848F4672F782F8827985FF9CF8695A6
:104240007795679593959539D0F3B62FB1706B0F2D
:10425000711D811D20F4879577956795939544C0CE
:104260005EC073CF11F40EF42BCF59C053DFD0F3DF
:104270009923D9F3CEF39F57550B87FF5ED00024C7
:10428000A0E640EA900180585695979528F4805C06
:10429000660F771F881F20F026173707480730F46E
:1042A000621B730B840B202931294A2BA695179486
:1042B0000794202531254A2758F7660F771F881F56
:1042C00020F026173707480730F4620B730B840B76
:1042D000200D311D411DA09581F7B901842F915802
:1042E000880F969587950895882371F4772321F098
:1042F0009850872B762F07C0662311F499270DC09D
:104300009051862B70E060E02AF09A95660F771F37
:10431000881FDAF7880F9695879597F908959F3F3C
:1043200031F0915020F4879577956795B795880F70
:10433000911D9695879597F9089591505040660F75
:10434000771F881FD2F7089597FB092E07260AD0FA
:1043500077FD04D043D006D000201AF47095619503
:104360007F4F0895F6F7909581959F4F08952F926E
:104370003F924F925F926F927F928F929F92AF92F5
:10438000BF92CF92DF92EF92FF920F931F93CF9342
:10439000DF93CDB7DEB7CA1BDB0B0FB6F894DEBFD9
:1043A0000FBECDBF09942A88398848885F846E84FF
:1043B0007D848C849B84AA84B984C884DF80EE8049
:1043C000FD800C811B81AA81B981CE0FD11D0FB652
:1043D000F894DEBF0FBECDBFED010895AA1BBB1B35
:1043E00051E107C0AA1FBB1FA617B70710F0A61BF5
:1043F000B70B881F991F5A95A9F780959095BC0116
:10440000CD010895A0E0B0E0E8E0F2E20C94BF2115
:10441000EC01A880B980CA80DB80A114B104C1047A
:10442000D10441F484E2A82E89EDB82E8BE5C82E84
:1044300087E0D82EC601B5012DE133EF41E050E011
:104440000E944F2427EA31E440E050E00E943024EB
:104450007B018C01C601B5012DE133EF41E050E055
:104460000E944F24CA01B9012CEE34EF4FEF5FEFE9
:104470000E9430246E0D7F1D801F911F97FF04C086
:104480006150704080409048688379838A839B8321
:104490009B013F77C901CDB7DEB7EAE00C94DB2181
:1044A0000E94022208958AE694E00E940222089562
:1044B000A0E0B0E080936A0490936B04A0936C0436
:1044C000B0936D040895283008F027E03327DA010F
:1044D000990F311D87FD916000966105710539F4D2
:1044E00032602E5F3D9330E32A95E1F708959F3FB8
:1044F00030F080387105610509F03C5F3C5F3D9309
:10450000913008F08068911DDF93CF931F930F9334
:10451000FF92EF92192F987F9695E92F9695969591
:10452000E90FFF27E75CFB4F99273327EE24FF2491
:10453000A701E70105900894079428F4360FE71EB9
:10454000F81E491F511D660F771F881F991F06947B
:10455000A1F70590079428F4E70EF81E491F561F8F
:10456000C11D770F881F991F661F0694A1F705903C
:10457000079428F4F80E491F561FC71FD11D880F36
:10458000991F661F771F0694A1F70590079420F4E2
:10459000490F561FC71FD81F990F661F771F881F07
:1045A0000694A9F784911095177041F0D695C79598
:1045B00057954795F794E7941A95C1F7EFEDF3E017
:1045C00068941590159135916591959105907FE2CC
:1045D0007395E118F10A430B560BC90BD009C0F7CC
:1045E000E10CF11E431F561FC91FD01D7EF470330E
:1045F00011F48A95E6CFE894015030F0080F0AF4E0
:104600000027021708F4202F2395022F7A3328F071
:1046100079E37D932A95E9F710C07D932A9589F671
:10462000069497956795379517951794E118F10AB1
:10463000430B560BC90BD00998F023957E917395C7
:104640007A3308F070E37C932013B8F77E917061A1
:104650007D9330F0839571E37D9370E32A95E1F7C4
:104660001124EF90FF900F911F91CF91DF91992727
:1046700087FD90950895FC010590615070400110F0
:10468000D8F7809590958E0F9F1F0895FC0161507B
:10469000704001900110D8F7809590958E0F9F1F64
:1046A00008950F931F93CF93DF938C01EB018B81C0
:1046B00081FF1BC082FF0DC02E813F818C819D81B7
:1046C0002817390764F4E881F9810193F983E883B5
:1046D00006C0E885F985802F0995892B31F48E81F4
:1046E0009F8101969F838E8302C00FEF1FEFC80149
:1046F000DF91CF911F910F910895AEE0B0E0E3E814
:10470000F3E20C94C5210D891E898F89988D97FF3E
:1047100002C080E090E801979E838D831A8309830D
:1047200086E08C839E01255E3F4FCE010196698D08
:104730007A8DA9010E941D184D815E8157FD0AC026
:104740002F813885421753070CF49A01020F131F6B
:10475000F80110822E96E4E00C94E121AEE0B0E086
:10476000E4EBF3E20C94C5210D891E8986E08C836D
:104770001A8309838FEF9FE79E838D839E01275EB7
:104780003F4FCE0101966F89788DA9010E941D18B7
:104790002F813885020F131FF80110822E96E4E056
:1047A0000C94E121FA01AA27283051F1203181F13E
:1047B000E8946F936E7F6E5F7F4F8F4F9F4FAF4F29
:1047C000B1E03ED0B4E03CD0670F781F891F9A1F3C
:1047D000A11D680F791F8A1F911DA11D6A0F711DF0
:1047E000811D911DA11D20D009F468943F912AE0FC
:1047F000269F11243019305D3193DEF6CF010895E4
:10480000462F4770405D4193B3E00FD0C9F7F6CF14
:10481000462F4F70405D4A3318F0495D31FD4052DC
:10482000419302D0A9F7EACFB4E0A6959795879572
:1048300077956795BA95C9F7009761057105089551
:104840009B01AC010A2E06945795479537952795FD
:10485000BA95C9F7620F731F841F951FA01D089595
:10486000629FD001739FF001829FE00DF11D649F54
:10487000E00DF11D929FF00D839FF00D749FF00DE0
:10488000659FF00D9927729FB00DE11DF91F639F81
:10489000B00DE11DF91FBD01CF011124089597FB53
:1048A000092E05260ED057FD04D014D00AD0001CC6
:1048B00038F450954095309521953F4F4F4F5F4FBD
:1048C0000895F6F790958095709561957F4F8F4F7D
:1048D0009F4F0895A1E21A2EAA1BBB1BFD010DC01C
:1048E000AA1FBB1FEE1FFF1FA217B307E407F507A0
:1048F00020F0A21BB30BE40BF50B661F771F881F7C
:10490000991F1A9469F760957095809590959B0111
:0C491000AC01BD01CF010895F894FFCF69
:10491C0025640025322E3066004D616E616E20508C
:10492C006174656C20006E39383339393530004389
:10493C006F6E6E656374205553422E2E2E00486F99
:10494C00772061726520796F7521005265616479F9
:10495C0020746F20506C61793F004C6F6164696EFC
:10496C00672E2E2E0053636F7265203D20006C6500
:10497C0076656C203D200054696D653A20252E32F9
:10498C00643A252E32640053636F72653A202564B5
:10499C00004C697665733A20256400466C6F6F7223
:1049AC003A202564004C6F636174696F6E3A20285D
:1049BC000029200053636F72653A2000204C697601
:1049CC0065733A2000204C6576656C3A2000290D01
:1049DC000A0047616D65206F7665722100466C6F29
:1049EC006F723A2000506C61796572206973206B8C
:1049FC00696C6C6564206279206D6F6E737465727E
:104A0C00200A00506C61796572207069636B656473
:104A1C0020757020746865206B65790A00506C6194
:104A2C00796572206D6F76656420746F206C657685
:104A3C00656C20000A00506C6179657220706963A6
:104A4C006B65642075702074726561737572650A8C
:104A5C0000506C61796572206D6F766520746F20E3
:104A6C006C6576656C2000FFFF03000100427E3C04
:104A7C0018FFA5BD24243F007F804C807F807F8061
:104A8C004C804C80E0BFE5F87C3E7C3E7C3E7C3E1E
:104A9C001FC8442244224422442213CFC7E3C7E355
:104AAC00C7E3C7E3F3C0000000000000000003C030
:104ABC00000000000000000003C000000000000027
:104ACC00000003C0000000000000000003C0000054
:104ADC0000000000000003C01F800FC000FC007E1F
:104AEC0003C01F800FC000FC007E03C01F800FC0DE
:104AFC0000FC007E03C01F800FC000FC007E03C0C2
:104B0C001F800FC000FC007E03C0000000000000EE
:104B1C00000003C0000000000000000003C0000003
:104B2C0000000000000003C00000000000000000B6
:104B3C0003C07F800000000000FF03C04080000025
:104B4C000000008103C0408000000000008103C011
:104B5C007F800000000000FF03C040000000000048
:104B6C00008003C0400000000000008003FFFFFF36
:104B7C00FFFFFFFFFFFFFF0E003F8071C0E0C0C0D2
:104B8C00C0C6C0C6C0C0C0C0C0C0C0C0C0183C7C7D
:104B9C00FEFFFFFFFFFFFFFFFFFFFFFFFFFFFFFF1A
:104BAC00FFFFFFFFFFFFFFFFFFFFFFFFFFFFFFFF09
:104BBC00FFFFFFFFFFFFFFFFFFFFFFFFFFFFFFFFF9
:104BCC00FFFFFFFFFFFFFFFFFFFFFFFFFFFFFFFFE9
:104BDC00FFFFFFFFFFFFFFFFFFFFFFFFFFFFFFFFD9
:104BEC00FFFFFFFFFFFFFFFFFFFFFFFFFFFFFFFFC9
:104BFC00FFFFFFFFFFFFFFFFFFFFFFFFFFFFFFFFB9
:104C0C00FFFFFFFFFFFFFFFFFFFFFFFFFFFFFFFFA8
:104C1C00FFFFFFFFFFFFFFFFFFFFFFFFFFFFFFFF98
:104C2C00FFFFFFFFFFFFFFFFFFFFFFFFFFFFFFFF88
:104C3C00FFFFFFFFFFFFFFFFFFFFFFFFFFFFFFFF78
:104C4C00FFFFFFFFFFFFFFFFFFFFFFFFFFFFFFFF68
:104C5C00FFFFFFFFFFFFFFFFFFFFFFFFFFFFFFFF58
:104C6C00FFFFFFFFFFFFFFFFFFFFFFFFFFFFFFFF48
:0E4C7C00FFFFFF00E100000000080100000043
:00000001FF
